:4000000000800020B90600000D1B00000D1B00000D1B00000D1B00000D1B00000D1B00000D1B00000D1B00000D1B00000D1B00000D1B00000D1B00000D1B00000D1B000031
:400040000D1B00000D1B00000D1B00000D1B00000D1B00000D1B00000D1B00000D1B00000D1B00000D1B00000D1B00000D1B00000D1B00000D1B00000D1B00000D1B000000
:400080000D1B00000D1B00000D1B00000D1B00000D1B00000D1B00000D1B00000D1B00000D1B00000D1B00000D1B00000D1B00000D1B00000D1B00000D1B00000D1B0000C0
:4000C00001000000002000400100000000200140010000000048004001000000004801400100000001000000080002230000087608000323000010760800042300002876FC
:4001000008000523000030760500062300002070050007230000307005000823000060700500FF230000707010000A220000305110000B220000505110000C220000C0516B
:400140001000FF220000F05180020E220000000080000F22000080068001102200000008800111220000000A000412220000000C800013220000801480011422000000184F
:40018000000215220000001A000216220000004080001722000000438000182200000045800019220000004780001A22000000488000FF220000004C40001C2300000064A1
:4001C00020001D230000706440001E23000000652000FF2300007065080020230000005180002123000080028000222300000004800023230000800480002423000000060C
:40020000800025230000001480002623000000168000272300008016800028230000004D800029230000804D80002A230000804C80002B230000804780002C2300000046AF
:4002400080002D230000804680002E230000804580002F230000004480003023000080448000312300000015800032230000801580003323000080198000342300000017F5
:400280008000352300008017800036230000800980003723000000078000382300008007800039230000800B80003A230000000580003B230000800580003C23000000039C
:4002C00080003D230000800380003E230000004980003F230000804980004023000080488000412300008043800042230000004280004323000080421000442300001050CE
:400300001000FF230000005080B51448144B21E05C689968DD688C420CD0002205E0A6180832D6E9008941E902898C460831AA42F5D101E004EB050C1C696146002204E0CA
:4003400008320026002741E902670831A242F7D1143301380028DBD101F0C0FB01000000E01C000048F21813C1F6FF731A780AB901201870704700BF48F20010C1F6FF700F
:4003800008B503682BB140F20003C0F2000303B1984708BD80B582B000AF62B64FF069037B804FF00003BB804FF00003FB8000F0B1FA4FF0010000F047FB4FF000004FF05E
:4003C000000100F0BDFA41F66030C0F2000000F0F1FA00F06FFD00F0D9FD00F0EDFD00F019FE00F0BBF84FF001004FF0020100F0FBF84FF0010000F019F90346BB80BB88ED
:40040000022B0BD14FF001004FF0000100F098FA41F66430C0F2000000F0CCFA4FF002004FF0400100F0E0F84FF001004FF0030100F0DAF84FF0010000F0F8F80346BB800C
:400440004FF001004FF0020100F07AFABB88DBB2184600F0B3FC7B884FF02000194600F0C3F84FF020004FF0690100F0BDF84FF020004FF0690100F0B7F800F057F8034681
:400480007B804FF002004FF0820100F0ADF84FF002004FF0830100F0A7F84FF0020000F0C5F80346BB804FF001004FF0040100F047FABB88DBB2184600F080FC4FF0040012
:4004C00000F0B4F80346FB804FF001004FF0080100F036FAFB88DBB2184600F06FFC10E04FF0040000F0A2F80346FB804FF001004FF0080100F024FAFB88DBB2184600F0B6
:400500005DFCFB8803F00203002BE9D04FF000004FF0050100F014FA7B88DBB2184600F04DFC41F2883000F067F977E780B400AF48F21A13C1F6FF731B8803F101039AB267
:4005400048F21A13C1F6FF731A8048F21A13C1F6FF731B881846BD4680BC704780B500AF4FF01D004FF0010100F03EF84FF032004FF03C0100F038F84FF035004FF014014E
:4005800000F032F84FF00D004FF0400100F02CF84FF026004FF0080100F026F84FF006004FF0480100F020F84FF01B004FF0550100F01AF84FF01C004FF0050100F014F824
:4005C0004FF011004FF0050100F00EF84FF010004FF0A40100F008F84FF003004FF00D0100F002F880BD00BF80B582B000AF02460B46FA80BB8000F0C9FC00F0DDFCFB8873
:40060000DBB2A3F18003DBB2184600F091FCBB88DBB2184600F08CFC00F062FC0346002BFAD007F10807BD4680BD00BF80B584B000AF0346FB804FF00003BB814FF00003DA
:40064000FB8100F0A3FC00F0B7FCFB88DBB2184600F06EFC4FF0000000F06AFC4FF0000000F066FC4FF0000000F062FC00F038FC0346002BFAD04FF00003FB8112E000F04F
:4006800071FC0346BB814FF001004FF00E0100F057F9BB89DBB2184600F090FBFB8903F10103FB81FB89012BE9D9BB89184607F11007BD4680BD00BF80B400AF074B1C78ED
:4006C00044F001041C70064B1A78D2B2054B1A70FFF71AFEBD4680BC70470000E8460040F8460040BC76004080B582B000AF4EF60C53CEF2000340F20042C0F2FA521A602A
:400700004EF61453CEF200034EF61452CEF20002126842F400721A604FF000037B6014E07A687B684FEA830140F20003C0F200030B441B68194648F20003C1F6FF7343F8F4
:4007400022107B6803F101037B607B682F2BE7D947F2BC63C4F200031B78DAB248F23013C1F6FF731A704EF60853CEF2000348F20002C1F6FF721A6000F0EEFE00F004F82C
:4007800007F10807BD4680BD80B483B000AF48F21D13C1F6FF734FF07F021A7048F21C13C1F6FF736FF07F021A704FF07F03FB710FE0FB794FEAC30303F1804303F5F04392
:4007C000FA7902F1FF32D2B21A70FB7903F1FF33FB71FB79002BECD1FB794FEAC30303F1804303F5F0434FF000021A7007F10C07BD4680BC704700BF80B582B000AF786024
:400800000BE048F21013C1F6FF731B68184600F0F7FF7B68A3F500437B607B68B3F5004FEFD848F20813C1F6FF731B687A6802FB03F3184600F0E4FF07F10807BD4680BDF8
:4008400080B582B000AF0346FB80FA8848F20C13C1F6FF731B7803FB02F3184600F0D0FF07F10807BD4680BD80B500AF4FF02800FFF7C2FF4FF0030000F05AFA4FF00500E4
:40088000FFF7BAFF4FF0030000F052FA4FF00F00FFF7B2FF4FF0030000F04AFA4FF00100FFF7AAFF4FF0020000F042FA4FF00500FFF7A2FF4FF0060000F0C6F84FF00E0039
:4008C00000F0C2F84FF02C0000F0BEF84FF0080000F0BAF84FF0010000F0B6F84FF00C0000F0B2F84FF0030000F0AEF84FF00500FFF782FF80BD00BF80B500AF4FF00C00D3
:4009000000F0A2F848F22413C1F6FF734FF001021A7080BD80B500AF48F22513C1F6FF731B78002B08D1FFF79FFF48F22513C1F6FF734FF001021A70FFF7DEFF80BD00BFAA
:4009400080B582B000AF02460B46FA71BB71FB79032B2AD801A252F823F000BF6D0900007D0900008D0900009D090000BB79A3F18003DBB2184600F067F816E0BB79A3F153
:400980004003DBB2184600F05FF80EE0BB79A3F16C03DBB2184600F057F806E0BB79A3F12C03DBB2184600F04FF807F10807BD4680BD00BF80B584B000AF78604FF001033B
:4009C000BB737B681B78FB730CE0FB7B184600F01FF8BA7B7B6813441B78FB73BB7B03F10103BB73FB7B002BEFD107F11007BD4680BD00BF80B582B000AF0346FB71FB79A4
:400A0000184600F005F807F10807BD4680BD00BF80B584B000AF0346FB7100F035F8FB794FEA1313FB73FB7B184600F02BF9FB7903F00F03FB73FB7B184600F023F907F193
:400A40001007BD4680BD00BF80B584B000AF0346FB71FB794FEA1313FB7300F015F8FB7B03F00F03FB73FB7B184600F061F9FB7903F00F03FB73FB7B184600F059F907F159
:400A80001007BD4680BD00BF80B582B000AF4FF00003FB7145F22013C4F2000345F22012C4F200021278D2B202F080021A7045F22213C4F200031B78DBB223F00F03FB7136
:400AC00045F22213C4F20003FA7942F00F02D2B21A7045F22313C4F200031B78DBB223F00F03FB7145F22313C4F20003FA791A7045F22413C4F200031B78DBB223F00F03A7
:400B0000FB7145F22413C4F20003FA791A7045F22013C4F2000345F22012C4F200021278D2B202F0DF021A7045F22013C4F2000345F22012C4F200021278D2B242F04002B0
:400B4000D2B21A704FF00000FFF77AFE45F22013C4F2000345F22012C4F200021278D2B242F01002D2B21A704FF00100FFF768FE45F22113C4F200031B78FB7145F22013ED
:400B8000C4F2000345F22012C4F200021278D2B202F0EF021A70FB7903F00803FB7145F22013C4F2000345F22012C4F200021278D2B242F01002D2B21A704FF00100FFF728
:400BC0003FFE45F22013C4F2000345F22012C4F200021278D2B202F0EF021A70FB79002BB0D145F22013C4F2000345F22012C4F200021278D2B202F0BF021A7045F22013E0
:400C0000C4F2000345F22012C4F200021278D2B202F080021A7045F22213C4F200031B78DBB223F00F03FB7145F22213C4F20003FA791A7045F22313C4F200031B78DBB290
:400C400023F00F03FB7145F22313C4F20003FA7942F00F02D2B21A7045F22413C4F200031B78DBB223F00F03FB7145F22413C4F20003FA7942F00F02D2B21A7007F108072F
:400C8000BD4680BD80B582B000AF0346FB71FFF7FBFE45F22013C4F2000345F22012C4F200021278D2B242F02002D2B21A7045F22013C4F2000345F22012C4F200021278B8
:400CC000D2B202F0BF021A7045F22013C4F2000345F22012C4F200021278D2B202F0F0021A7045F22013C4F2000345F22012C4F200021278D1B2FA7941EA0202D2B242F0CA
:400D00001002D2B21A704FF00100FFF799FD45F22013C4F2000345F22012C4F200021278D2B202F0EF021A7007F10807BD4680BD80B582B000AF0346FB7145F22013C4F2D6
:400D4000000345F22012C4F200021278D2B202F09F021A7045F22013C4F2000345F22012C4F200021278D2B202F0F0021A7045F22013C4F2000345F22012C4F20002127896
:400D8000D1B2FA7941EA0202D2B242F01002D2B21A704FF00100FFF753FD45F22013C4F2000345F22012C4F200021278D2B202F0EF021A7007F10807BD4680BD80B582B045
:400DC00000AF0346FB71FB794FEA1313DBB21A4641F66833C0F200039B5C1846FFF70AFEFB7903F00F0241F66833C0F200039B5C1846FFF7FFFD07F10807BD4680BD00BFA9
:400E000080B500AF46F28653C4F200034FF00F021A7000F0FFF800F063F800F075F846F28753C4F200034FF000021A7046F28453C4F200034FF000021A7080BD80B582B0CE
:400E400000AF4FF00003FB7100F0E2FC0346FB7146F29653C4F2000346F29652C4F200021278D2B242F02002D2B21A7046F29753C4F2000346F29752C4F200021278D2B2AE
:400E800042F01002D2B21A7046F29453C4F2000346F29452C4F200021278D2B242F01002D2B21A70FB79184600F0B6FC07F10807BD4680BD80B500AF48F22613C1F6FF7397
:400EC0001B78002B08D1FFF79BFF48F22613C1F6FF734FF001021A70FFF7B0FF80BD00BF80B483B000AF4FF00003FB7146F26753C4F200031B78FB71FB79184607F10C0777
:400F0000BD4680BC704700BF80B483B000AF4FF00003FB7146F26453C4F200031B78FB71FB79184607F10C07BD4680BC704700BF80B483B000AF0346FB7146F26753C4F28C
:400F400000031B78DBB203F00403002BF5D046F24753C4F20003FA791A7007F10C07BD4680BC704780B483B000AF4FF00003FB7146F25753C4F200031B78FB71FB791846AB
:400F800007F10C07BD4680BC704700BF80B400AF04E046F25753C4F200031B7846F26453C4F200031B78DBB203F02003002BF0D1BD4680BC704700BF80B582B000AF4FF0A8
:400FC0000003FB7100F024FC0346FB7146F29753C4F2000346F29752C4F200021278D2B242F00302D2B21A7046F29753C4F2000346F29752C4F200021278D2B202F0FC0204
:401000001A70FB79184600F007FC07F10807BD4680BD00BF80B582B000AF4FF00003FB7104E046F25753C4F200031B7846F26453C4F200031B78DBB203F02003002BF0D1BB
:4010400000F0E6FB0346FB7146F29753C4F2000346F29752C4F200021278D2B242F00302D2B21A7046F29753C4F2000346F29752C4F200021278D2B202F0FC021A70FB7933
:40108000184600F0C9FB07F10807BD4680BD00BF80B485B000AF786039607B68FB6007E0FB684FF000021A70FB6803F10103FB603B68002B0CBF00230123DBB23A6802F184
:4010C000FF323A60002BEBD107F11407BD4680BC704700BF80B487B000AFF860B9607A60FB683B61BB687B610BE07B691A783B691A703B6903F101033B617B6903F1010370
:401100007B617B68002B0CBF00230123DBB27A6802F1FF327A60002BE7D107F11C07BD4680BC704780B483B000AF48F22813C1F6FF734FF000021A6047F20063C4F200038E
:401140004FF010021A7047F21003C4F200034FF001021A7047F21003C4F200034FF000025A7247F60003C4F200034FF001029A7047F60003C4F200034FF00302DA7047F6A8
:401180000003C4F200034FF408721A8047F60403C4F2000340F2E802C0F2000292B21A8047F60603C4F2000347F608021A8047F20463C4F200034FF000021A8047F20663BB
:4011C000C4F200034FF480421A8047F22003C4F200034FF009025A7247F23003C4F200034FF00D025A7247F26003C4F200034FF01B025A7247F27003C4F200034FF01F02EB
:401200005A7247F21003C4F200034FF001021A7147F60003C4F200031B889BB2002BF7D14FF000033B6018E03B684FEAC30247F60803C4F20003134403F104037B607A68AE
:40124000396841F67833C0F2000353F821309BB213803B6803F101033B603B68432BE3DD47F21003C4F200034FF001021A7147F21803C4F200031B78DBB203F00103DBB230
:40128000002BF4D147F22803C4F200031B78DBB203F00103DBB2002BF4D147F23803C4F200031B78DBB203F00103DBB2002BF4D147F26803C4F200031B78DBB203F0010358
:4012C000DBB2002BF4D147F27803C4F200031B78DBB203F00103DBB2002BF4D147F21003C4F200034FF000021A7047F22003C4F200034FF000021A7047F23003C4F200039B
:401300004FF000021A7047F26003C4F200034FF000021A7047F27003C4F200034FF000021A7007F10C07BD4680BC704780B584B000AF07F10803FB6044F28000C4F20000AF
:4013400040F20101C0F2180100F0DAFA44F28400C4F2000040F20501C0F2180100F0D0FA44F20033C4F200034FF002021A7044F20003C4F200034FF008021A7044F2002370
:40138000C4F200034FF003021A7044F2A163C4F2000340F20812C4F600121278D2B21A7044F22223C4F200034FF008021A8044F22023C4F2000341F251021A804FF0000358
:4013C000FB714FF01903BB601AE0FB79DBB24FEA4303DAB244F22523C4F200031B78DBB203F0010342EA0303DBB203F00303FB714FF0780000F004FABB6803F1FF33BB608A
:40140000FB681B68002B03D0FB79DBB2032BDCD144F20403C4F2000340F203121A8044F20403C4F200034FF000021A7044F20403C4F200034FF007021A7044F20603C4F297
:4014400000034FF000021A7044F20803C4F200034FF048021A7044F20403C4F200034FF000021A7044F20103C4F200034FF002021A7044F2A233C4F2000344F2A232C4F28C
:4014800000021278D2B242F00302D2B21A7007F11007BD4680BD00BF80B400AF44F2AA33C4F200034FF444721A8045F26D13C4F200034FF001021A7045F62003C4F2000334
:4014C0004FF01E021A7045F62403C4F200034FF01E021A7045F62803C4F200034FF01E021A7045F62C03C4F200034FF01E021A7045F67003C4F200034FF000021A7045F67E
:401500000013C4F200036FF03F021A7045F60313C4F200034FF00C021A7045F60813C4F200036FF03F021A7045F60B13C4F200034FF00C021A7045F6D323C4F200034FF089
:4015400020021A7045F67603C4F200034FF044021A70BD4680BC704780B500AF72B644F60003C4F200034FF040021A7047F21003C4F200034FF000021A7047F22003C4F25E
:4015800000034FF000021A7045F67C03C4F200034FF001021A7044F2E863C4F2000344F2E862C4F200021278D2B242F00102D2B21A70FFF7B7FD45F20020C4F2000041F271
:4015C0009021C4F600014FF00702FFF783FD45F20820C4F2000041F29821C4F600014FF00702FFF777FD45F21020C4F2000041F2A021C4F600014FF00702FFF76BFD45F2AA
:401600001820C4F200004FF00701FFF741FD45F22020C4F2000041F2A821C4F600014FF00702FFF757FD45F22820C4F200004FF00701FFF72DFD45F23020C4F2000041F2BF
:40164000B021C4F600014FF00702FFF743FD45F26020C4F200004FF00601FFF719FD45F27820C4F200004FF00701FFF711FD45F67003C4F200034FF440721A8045F64C0351
:40168000C4F2000340F203221A8045F20303C4F2010345F20302C4F201021278D2B242F00202D2B21A7045F21303C4F2010345F21302C4F201021278D2B242F00202D2B26E
:4016C0001A7044F2A033C4F2000344F2A032C4F200021278D2B242F04002D2B21A7044F2C233C4F2000344F2C232C4F200021278D2B242F01002D2B21A7045F20210C4F229
:40170000000041F26821C4F600014FF0080200F01DF945F21210C4F2000041F27021C4F600014FF0080200F011F945F22210C4F2000041F27821C4F600014FF0080200F033
:4017400005F945F24210C4F2000041F28021C4F600014FF0080200F0F9F845F26210C4F2000041F28821C4F600014FF0080200F0EDF844F60003C4F200034FF000021A709E
:40178000FFF7D4FD44F60003C4F200036FF07F021A70FFF781FE44F2B030C4F2000044F2A031C4F200014FF00C0200F0CFF844F2B033C4F2000344F2B032C4F200021278D3
:4017C000D2B202F0FD021A7080BD00BF00000000000000000000000000000000000000000000000000000000000000000000000000000000000000000000000000000000EE
:401800000230800803D000BF01380046FCD17047EFF3108072B6704780F31088704700BFAFF30080AFF30080AFF30080AFF30080AFF30080AFF30080AFF30080AFF3008077
:401840000000000000000000000000000000000000000000000000000000000000000000000000000000000000000000000000000000000000000000000000000000000068
:401880000000000000000000000000000000000000000000000000000000000000000000000000000000000000000000000000000000000000000000000000000000000028
:4018C00000000000000000000000000000000000000000000000000000000000000000000000000000000000000000000000000000000000000000000000000000000000E8
:4019000080B483B000AF786039603B68DAB27B681A707B6803F101037B603B684FEA13233B603B68DAB27B681A707B6803F101037B603B684FEA13233B603B68DAB27B6810
:401940001A7007F10C07BD4680BC7047032A2DE9F0070BD83AB1002311F803C000F803C001339342F8D1BDE8F007704782180C46034603E014F8011C03F8011C03F00306B0
:401980001946A44601330134002EF3D11CF00304634608BFC1EB020C68D06542C4F1040A0CEB050733464FEACA0A5CF805604FEAC408551A08E057F8044F264604FA0AF4FC
:4019C00049EA0404CC5004335C18032D26FA08F9A5F104050CEB0306EDDC002302E0F15CE154013319199142F9D3BCE753F8404C41F8404C53F83C4C41F83C4C53F8384CFE
:401A000041F8384C53F8344C41F8344C53F8304C41F8304C53F82C4C41F82C4C53F8284C41F8284C53F8244C41F8244C53F8204C41F8204C53F81C4C41F81C4C53F8184C46
:401A400041F8184C53F8144C41F8144C53F8104C41F8104C53F80C4C41F80C4C53F8084C41F8084C53F8044C41F8044C1C460D4640334031BCF13F0FACF1400CB6DC21464F
:401A80002B46541B0FE051F8105C43F8105C51F80C5C43F80C5C51F8085C43F8085C51F8045C43F8045C0F2C0D469C4601F1100103F11003A4F11004E5DCCCEB0201002356
:401AC00003E0EC584CF8034004335E19032903EB0C04A1F10401F4DC7FE700BF08B500F017F8074800B10068064901B109680022FEF750FC044B0BB1AFF30080FEE700BF0A
:401B0000000000000000000000000000FEE7000070B541F6C84641F6C845C0F20006C0F20005761BB61006D0002455F8243001349847A642F9D841F6C84541F6D046C0F2A1
:401B40000005C0F20006761B00F0B8F8B61006D0002455F8243001349847A642F9D870BD545800005300000030313233343536373839414243444546C0000000C8000000F3
:401B8000D0000000D8000000E0000000E0000000E0000000E00000002881FF1F2881FF1F2881FF1F2881FF1F2881FF1F2881FF1F2881FF1F2881FF1F2881FF1F2881FF1F37
:401BC0002881FF1F2881FF1F2881FF1F2881FF1F2881FF1F2881FF1F2881FF1F2881FF1F88030048C8030048E8030048280400480000004808000048880000480801004867
:401C00008801004808020048880200480803004848040048C804004848050048C805004848060048C806004848070048C807004848080048C808004848090048C80900484E
:401C4000480A0048C80A0048480B0048C80B0048480C0048C80C0048480D0048C80D0048480E0048C80E0048480F0048C80F004848100048C810004848110048C81100488C
:401C800048120048581200486C5100404C5100404C5100406C5100406C5100400C5100406C5100406C510040D35A0040835A0040040240200880400101100000F8B500BF52
:401CC000F8BC08BC9E46704779030000E9060000F8B500BFF8BC08BC9E4670476503000000000000F81C00000080FF1F180100002000000000000000000000000000000094
:401D000000000000000000000000000000000000000000000000000000000000000000000000000000000000000000000000000000000000000000000000000000000000A3
:401D40000000000000000000000000000000000000000000000000000000000000000000000000000000000000000000000000000000000000000000000000000000000063
:401D80000000000000000000000000000000000000000000000000000000000000000000000000000000000000000000000000000000000000000000000000000000000023
:401DC00000000000000000000000000000000000000000000000000000000000000000000000000000000000000000000000000000000000000000000000000000366E013E
:401E0000C05D0000180000000000E02E000000000000000000000000000000000000000000000000000000000000000000000000000000000000000000000000000000005F
:401E40000000000000000000000000000000000000000000000000000000000000000000000000000000000000000000000000000000000000000000000000000000000062
:401E80000000000000000000000000000000000000000000000000000000000000000000000000000000000000000000000000000000000000000000000000000000000022
:401EC00000000000000000000000000000000000000000000000000000000000000000000000000000000000000000000000000000000000000000000000000000000000E2
:401F000000000000000000000000000000000000000000000000000000000000000000000000000000000000000000000000000000000000000000000000000000000000A1
:020000040003F7
:0200000480007A
:400000000000C00000000000000000000000000000000000000000000000000000000000000000000000000000000000000000000000000000000000000000000000000000
:400040000000000000000000040100000000000000FFFFFF020CF80000000000000000000000040000000000000048A100000000F000F000F000F0000000000000000000CB
:40008000000000000000000000000000000D0012001000020000000500000000001E000100000000001700080020000000000020000000000000000000200003001800044D
:4000C0000000000000000000040100000000000A00FFFFFF030CF40000000000000008000004040C00000000000048A100000000F000F000F000F00000000000000000002C
:400100000000000000000000000130800000086000F7300801000000207E00810000066030FF000004DF0820100200100000400001E90016000400100C3001807040020FC3
:400140000800000000001100410000000050020416FFFFFF0220000500100000000002000404040400000B0040408000800080000000000000000000000000000000000068
:40018000000000000000000007010000000010000000C00002003C00800000000A033500C00300000000C00040000000C000000029000203000200000F00C00030000003B2
:4001C00002000000000004403204000000200600060000000000000000000000000000000404040001000000000CF00C000C000C404C404C9058000C00000000000000001E
:4002000000000000000000000000000000000000000000000000000000000000000000000000000000000000000000000000000000000000000000000000000000000000BE
:40024000000000000000000000000000000000000000000000000000000000004000000000000004001000000000000000000000000000000000000000000000000000002A
:40028000000000000000000000030000400300000003800049000603800300008003000002030D00000000010014800065001A3413302C0800200004700280300F0C0001EA
:4002C00000002200000004553602000000200060220000000000000000000000000002280404040401100000000CF00C000C000C404C404C9058000C000000000000000032
:40030000000000000000000001000000073138020C02103156310902025100A0004400B1601600C80233000002330000020000000002020002F900067FE0000F0816040042
:400340000200000A000050003402500001DEC0FB3BFFFFFF2200F008040000000900000004040404111100000000C00040011011C00100010000400100000000000000004B
:4003800000000000000000000000000000FFFF000000000000000000000000000000FF000000000000000000000000000000FF000000000000000000000000000000000041
:4003C00000000000000000000000000000000000000000000000000000000000001F00000000000000000000000000000000FF000000000000000000000000000000FF00E0
:400400000000000000000000000000000000FF00000000000000000000000000000000000000000000000000000000000000000000000000000000000000000000000F00AE
:40044000000000000000000000000000000000000000000000000000000000000000000000000000000000000000000000000000000000000000000000000000000000007C
:400480000000000000000000000000000000000000000000000000000000000000000000000000000000000004000000000000000000000000000000000000000000000038
:4004C00000000000000000000000000000000000000000000000000004000000000000000000000000000000000000000000000000000000000000000000000000000000F8
:4005000000000000000000000000000000000000000000000000000000000000000000000200000000000000000000000000000000000000000000000000000000000000B9
:400540000000000000000000000000000000000000000000000000000400000000000000000000000000000000000000000000000400000000000000000000000000000073
:40058000000000000000000000000000000000000000000000000000000000000000000000000000000000000000000000000000000000000000000000000000000000003B
:4005C00000000000000000000000000000000000000000000000000000000000000000000000000000000000000000000000000000000000000000001000000000000000EB
:4006000000000000000000000000000000000000000000000000000000000000000000000000000000000000000000000000000000000400000000000000000000000000B6
:40064000000000000000000000000000000000001000000000000000000000000000000000000000000000000000000000000000000000000000000000000000000000006A
:40068000000000000000000000000000000000000000000000000000000000000000000000000000000000000000000000000000000000000000000000000000000000003A
:4006C00000000000000000100000000000001000000000100000000000000000000000000000000000001000000000000000000000000000000000000000000000000000BA
:4007000000000000000000000000020000000000000000000000000000000000000000000000000000000100040000000000000000000000000000000000000000000000B2
:400740000000000000000000000000000000000000000000000000000000000000000000000000000000100000000000000000000000000000000000000000000000000069
:400780000000000000000000000000000000000000000000000000000000000000000000000000000000000000000000000000000000000000000000000000000000000039
:4007C00000000000000000000000000000000000000000000000000000000000000000000000000000000000000000000000000000000000000000000000000000000000F9
:4008000000001000000000000000000000000000000000000000000000000000000000000000000000000000000000000000000000000000000000000000000000000000A8
:400840000000000000000000000000000000000000000000000000000000000000000000000000000000000000000000000000000000000000000000000000000000000078
:400880000000000000000000000000000000000000000000000008000000000000000000000000000000000000000000000000000000000000000000000000000000000030
:4008C00000000000000000000000000000000000000000000000000000000000000000000000000000000000000000000000000000000000000000000000000000000000F8
:40090000000000000000000000000000000000000000000000000000000000000000000000000000000000000008800400000000000000000000000000000000000000002B
:4009400000000000000000000000000000000100004800000000000000000004000001000000000000000000004080000000000000000000802000000000020400000000C3
:4009800000000000000000000000000000000000000000000000000000000000000000000E0000000000000000000000000000000000000000000000000000000000000029
:4009C00000000000000000000000000000000000000000000000000000000000000000000000000000000000000000000000000000000000000000000000000000000000F7
:400A000000000000000000000000000000000000000000000000000000000000000000000000000000000000000000000000000004000000000000000000000000000000B2
:400A40000000000000000000A88200002080180000010208020034000054000200290000006200008008041228141900084001100010110202011800800019000000802AA5
:400A80000054000000164000001401020008001000048100040100000000120402000000821400000200020000400000000000200000000080564000000000000000012A80
:400AC0000000000000000000000200000000000000000000000000002000000000290000000000000080000000001000020000000001000000000000000000000000000018
:400B00000000000000000000EF007B007F0000000000FD00FF00FE006F00280000000F004800000000000000000000000000000004000000000000000000000000000000E0
:400B40000000000000000000000000000000000000000000000000000000000000000000000000000000000000000000000000000000000000000000000000000000000075
:400B80000000000000000000000000000000000000000000000000000000000000000000000000000000000000000000000000000000200000000000000000000000000015
:400BC00000000000000000000000000024A10000000000001204000600000000002100080000000004090000000000000000000100000000022000000000000010000008A3
:400C00000000000000010000000000000028000100000000000000020000000000008000000000000000000000000000000000000000000000000000000000000000000008
:400C40000000000000000000000000000000000000000000040000002000000400010000000000080000800000201000020000000000000000000000100000000000004041
:400C80000000000000000000F000F000700000000000300060008000E0000000000000000000000000000000000000000000400000001000000000000000000000000000A4
:400CC00000000000000000000000000000000000000000000000000000000000000000000000000000000000000000000000000000000000000000000000000000000000F4
:400D00000000000000000000000000000000000000000000000000000000000000000000000000000000000022000000000000000000000000000000000000000000000091
:400D4000000000000000000000000000A820800000000000020011040000000000010808000000000024908044C8680020101049000400800221000000880000000028413A
:400D80000450000002200402404000000080400000000000400000000400000000004800100000000000000000000004000000000050040000000000000001000100000081
:400DC00000000001000040000000000000000004000040000000000000000000408000000000000000000000000000000000000000000000000000000000000000000000AE
:400E00000000000000000000F000F000700000000000B300FA00EE00990000000000040004000000000088000200000000000000000000000000000000000000000000009C
:400E40000000000000000000000000000000000000000000000000000000000000000000000000000000000000000000000000000000000000000000000000000000000072
:400E800000000000000000004040000000000000000000000000000000000000000000000000000000000000000000000000000000000000000000000000000000000000B2
:400EC00000000000000000000000000000000000000000000000000000000000000000000000000000000000000000000000000000000000000000000000000000000000F2
:400F000000000000000000000000000000000000000000000000000009000000000000000000000000000000000000000000000000000000000000000000000000000000A8
:400F40000000000000000000000000000000000000000010000000000000000000000000000000000000000000000000000000000000000000000000000000000000000061
:400F80000000000000000000000000000000000000000000000000000000000000000000000000000000000800000008000000000000000000000000000000000000000021
:400FC00000000000000000000000000000000010000000000000000000000000000000000000000800000000000000040000000000000000000000000000000000000000D5
:4010000000000000000000000000100000000000000000000000000000000000000080004000000000000000100000000000000000000000000000000000000000000000D0
:401040000000000000000000000000040000000000000000000000000000000000000000000000080000000000000000000000000000000000000000000000000000000064
:401080000000000000000000000000000000000000000000000000000000000000000000000000000000000000000000000020000000000000000000000000000000000010
:4010C0000000000000000000000000000000000000000000000000080000000000000000000000000000000000000000000000000000000000000000000000008000000068
:4011000000000000000000000000000000000000000000000000000000000000000000000000000000000000000000000000000000000000000000000000000000000000AF
:4011400000000000000000000000000000000000000000000000000000000000000000000000000000000000000000000000000000000000000000000000000080000000EF
:40118000000000000000000000000000000000000000000000000000000000000000000000000000000000000000000000000000000000000000000000000000000000002F
:4011C00000000000000000000000000000000000000000000000000000000000000000000000000000000000000000000000000000000000000000000000000000000000EF
:40120000000000000000000000000000000000000000000020000000000000000000000000000000000000000000000000000000000000000000000000000000000000008E
:4012400000000000000000000300100000000000000003000000000003001000000000000100030000000000000080000000000010C0C000C000000000FFFF0080000000F3
:40128000000042000000000000006C000000010000000000000080004080000010000000008000000000000000000000000042000000000000006C00000000000000000001
:4012C00000000000000000000000000000000000000000000000000000000000000000000000000000000000000000000000000000000000000000000000000000000000EE
:4013000000000000000000000000000000000000000000000000000000000000000000000000000000000000000000000000000000000000000000000000000000000000AD
:40134000000000000000000000000000000000000000000000000000000000000000000000000000000000000000000000000000000000000000000000000000000000006D
:40138000000000000000000000000000000000000000000000000000000000000000000000000000000000000000000000000000000000000000000000000000000000002D
:0200000490006A
:0400000000000006F6
:0200000490105A
:04000000AFAC90BC55
:0200000490303A
:020000008D89E8
:0200000490501A
:0C00000000010E13C06901010E1F4DF23B
:0200000490402A
:4000000000000000000000000000000000000000000000000000000000000000000000000000000000000000000000000000000000000000000000000000000000000000C0
:400040000000000000000000000000000000000000000000000000000000000000000000000000000000000000000000000000000000000000000000000000000000000080
:400080000000000000000000000000000000000000000000000000000000000000000000000000000000000000000000000000000000000000000000000000000000000040
:4000C0000000000000000000000000000000000000000000000000000000000000000000000000000000000000000000000000000000000000000000000000000000000000
:00000001FF
