:1000000000800020350700000D1B00000D1B0000C4
:100010000D1B00000D1B00000D1B00000D1B000040
:100020000D1B00000D1B00000D1B00000D1B000030
:100030000D1B00000D1B00000D1B00000D1B000020
:100040000D1B00000D1B00000D1B00000D1B000010
:100050000D1B00000D1B00000D1B00000D1B000000
:100060000D1B00000D1B00000D1B00000D1B0000F0
:100070000D1B00000D1B00000D1B00000D1B0000E0
:100080000D1B00000D1B00000D1B00000D1B0000D0
:100090000D1B00000D1B00000D1B00000D1B0000C0
:1000A0000D1B00000D1B00000D1B00000D1B0000B0
:1000B0000D1B00000D1B00000D1B00000D1B0000A0
:1000C000010000000020004001000000002001406D
:1000D000010000000048004001000000004801400D
:1000E0000100000001000000080002230000087663
:1000F000080003230000107608000423000028767F
:10010000080005230000307605000623000020705B
:100110000500072300003070050008230000607010
:100120000500FF230000707010000A22000000513B
:1001300040000B220000305110000C220000C05182
:100140001000FF220000F051FF0F0E2200000000FF
:1001500001000F220000FF0F800010220000001697
:100160008003112200000018000912220000004044
:100170000001FF220000004C2000FF2300007065FA
:100180008000152300000014800016230000801456
:100190008000172300008016800018230000004D07
:1001A000800019230000804D80001A230000801B6E
:1001B00080001B230000001580001C230000801518
:1001C00080001D230000001780001E230000801700
:1001D00080001F2300000049800020230000804988
:1001E0001000FF230000105080B51448144B21E08C
:1001F0005C689968DD688C420CD0002205E0A61886
:100200000832D6E9008941E902898C460831AA42C0
:10021000F5D101E004EB050C1C696146002204E005
:1002200008320026002741E902670831A242F7D1CF
:10023000143301380028DBD101F050FC010000002C
:10024000201C000048F21813C1F6FF731A780AB98F
:1002500001201870704700BF48F20010C1F6FF700F
:1002600008B503682BB140F20003C0F2000303B1EC
:10027000984708BD80B582B000AF62B64FF000036A
:100280007B804FF00003BB804FF00003FB8000F049
:100290007FFB4FF0010000F015FC4FF000004FF025
:1002A000000100F08BFB41F66030C0F2000000F06E
:1002B000BFFB00F03DFE00F0A7FE00F0BBFE00F02B
:1002C000E7FE00F043F94FF001004FF0020100F0AB
:1002D0006DF84FF0010000F0F3F80346BB80BB88D7
:1002E000022B0BD14FF001004FF0000100F066FB34
:1002F00041F66430C0F2000000F09AFB00F072F9A1
:1003000000E000BF00F094F903467B804FF001004D
:100310004FF0050100F052FB7B88DBB2184600F07D
:100320008BFD7B88082B02D07B88072B0DD100F03A
:1003300059F94FF001004FF0040100F03FFB41F686
:100340006830C0F2000000F073FB7B8803F002030A
:10035000002BD6D07B88DBB2184600F08FF903461D
:10036000002B10D04FF0210000F042F80346BB8074
:100370004FF000004FF0030100F020FBBB88DBB220
:10038000184600F059FD00F02DF9FB8803F1010338
:10039000FB804FF000004FF00E0100F00FFBFB88D8
:1003A000DBB2184600F048FDACE700BF80B582B074
:1003B00000AF02460B46FA80BB8000F025FE00F03D
:1003C00039FEFB88DBB2A3F18003DBB2184600F0F4
:1003D000EDFDBB88DBB2184600F0E8FD00F0BEFD85
:1003E0000346002BFAD007F10807BD4680BD00BFC9
:1003F00080B584B000AF0346FB804FF00003BB81A3
:100400004FF00003FB8100F0FFFD00F013FEFB88BE
:10041000DBB2184600F0CAFD4FF0000000F0C6FD48
:100420004FF0000000F0C2FD4FF0000000F0BEFDF4
:1004300000F094FD0346002BFAD000F0D1FD0346F6
:10044000BB814FF000004FF0050100F0B7FABB8907
:10045000DBB2184600F0F0FC00F0C2FD0346FB8161
:100460004FF000004FF0070100F0A8FAFB89DBB263
:10047000184600F0E1FC00F0B3FD0346BB814FF0ED
:1004800000004FF0090100F099FABB89DBB2184671
:1004900000F0D2FC00F0A4FD0346BB814FF0000049
:1004A0004FF00B0100F08AFABB89DBB2184600F06E
:1004B000C3FCFB89184607F11007BD4680BD00BF8D
:1004C00080B584B000AF0346FB804FF00003BB81D2
:1004D0004FF00003FB8100F097FD00F0ABFDFB88BF
:1004E000DBB2184600F062FD4FF0000000F05EFD48
:1004F0004FF0000000F05AFD4FF0000000F056FDF4
:1005000000F02CFD0346002BFAD04FF00003FB81D6
:1005100012E000F065FD0346BB814FF001004FF093
:100520000E0100F04BFABB89DBB2184600F084FCE8
:10053000FB8903F10103FB81FB89012BE9D9BB890D
:10054000184607F11007BD4680BD00BF80B500AF5B
:100550004FF01D004FF00101FFF728FF4FF0320070
:100560004FF03C01FFF722FF4FF035004FF0140130
:10057000FFF71CFF4FF00D004FF04001FFF716FF93
:100580004FF026004FF00801FFF710FF4FF00F006B
:100590004FF09001FFF70AFF4FF006004FF04801BF
:1005A000FFF704FF4FF01B004FF05501FFF7FEFE71
:1005B0004FF01C004FF00501FFF7F8FE4FF011005F
:1005C0004FF00501FFF7F2FE4FF010004FF0A401CD
:1005D000FFF7ECFE4FF003004FF00D01FFF7E6FED2
:1005E00080BD00BF80B582B000AF4FF00003FB803C
:1005F0004FF005004FF08301FFF7D8FE4FF01300D6
:10060000FFF75EFF4FF00500FFF75AFF0346FB8040
:100610004FF001004FF0020100F0D0F9FB88DBB28F
:10062000184600F009FC07F10807BD4680BD00BF71
:1006300080B582B000AF4FF00003FB714FF00700B0
:10064000FFF73EFF0346FB714FF00700FFF738FF4F
:100650000346DAB2FB7942EA0303FB71FB7903F04C
:100660000503002B03D0FB7943F00303FB71FB79F7
:10067000184607F10807BD4680BD00BF80B584B0AD
:1006800000AF0346FB714FF00003BB734FF00A004D
:10069000FFF716FF03467B734FF001004FF00B018D
:1006A00000F08CF97B7B184600F0C6FBFB7903F069
:1006B0000103DBB2002B11D04FF00F03FB7307E0F7
:1006C0004FF02100FFF7FCFEFB7B03F1FF33FB73D0
:1006D000FB7B002BF4D14FF000037B734FF00F0036
:1006E000FFF7EEFE034643F020039BB24FF00F00EE
:1006F0001946FFF75BFE4FF00F00FFF7E1FE0346E0
:1007000003F02003002BF6D14FF00800FFF7D8FECE
:100710000346BB734FF001004FF0080100F04EF9A3
:10072000BB7B184600F088FB7B7B184607F110075F
:10073000BD4680BD80B400AF074B1C7844F0010477
:100740001C70064B1A78D2B2054B1A70FFF74CFD9D
:10075000BD4680BC70470000E8460040F8460040B7
:10076000BC76004080B582B000AF4EF60C53CEF29E
:10077000000340F20042C0F2FA521A604EF61453DF
:10078000CEF200034EF61452CEF20002126842F48A
:1007900000721A604FF000037B6014E07A687B6897
:1007A0004FEA830140F20003C0F200030B441B68D0
:1007B000194648F20003C1F6FF7343F822107B6824
:1007C00003F101037B607B682F2BE7D947F2BC6301
:1007D000C4F200031B78DAB248F23013C1F6FF739B
:1007E0001A704EF60853CEF2000348F20002C1F62A
:1007F000FF721A6000F0D0FE00F004F807F108075D
:10080000BD4680BD80B483B000AF48F21D13C1F671
:10081000FF734FF07F021A7048F21C13C1F6FF738A
:100820006FF07F021A704FF07F03FB710FE0FB79CE
:100830004FEAC30303F1804303F5F043FA7902F171
:10084000FF32D2B21A70FB7903F1FF33FB71FB79EF
:10085000002BECD1FB794FEAC30303F1804303F58E
:10086000F0434FF000021A7007F10C07BD4680BC40
:10087000704700BF80B582B000AF78600BE048F2EF
:100880001013C1F6FF731B68184600F0B9FF7B68B0
:10089000A3F500437B607B68B3F5004FEFD848F2C7
:1008A0000813C1F6FF731B687A6802FB03F318464E
:1008B00000F0A6FF07F10807BD4680BD80B582B0F5
:1008C00000AF0346FB80FA8848F20C13C1F6FF73B1
:1008D0001B7803FB02F3184600F092FF07F10807AC
:1008E000BD4680BD80B500AF4FF02800FFF7C2FFC6
:1008F0004FF0030000F05AFA4FF00500FFF7BAFF7F
:100900004FF0030000F052FA4FF00F00FFF7B2FF74
:100910004FF0030000F04AFA4FF00100FFF7AAFF82
:100920004FF0020000F042FA4FF00500FFF7A2FF7F
:100930004FF0060000F0C6F84FF00E0000F0C2F8CD
:100940004FF02C0000F0BEF84FF0080000F0BAF8AD
:100950004FF0010000F0B6F84FF00C0000F0B2F8D4
:100960004FF0030000F0AEF84FF00500FFF782FFF4
:1009700080BD00BF80B500AF4FF00C0000F0A2F8C2
:1009800048F22413C1F6FF734FF001021A7080BDC4
:1009900080B500AF48F22513C1F6FF731B78002B1A
:1009A00008D1FFF79FFF48F22513C1F6FF734FF000
:1009B00001021A70FFF7DEFF80BD00BF80B582B074
:1009C00000AF02460B46FA71BB71FB79032B2AD8A4
:1009D00001A252F823F000BFE9090000F909000064
:1009E000090A0000190A0000BB79A3F18003DBB2F9
:1009F000184600F067F816E0BB79A3F14003DBB2BC
:100A0000184600F05FF80EE0BB79A3F16C03DBB28F
:100A1000184600F057F806E0BB79A3F12C03DBB2CF
:100A2000184600F04FF807F10807BD4680BD00BF2B
:100A300080B584B000AF78604FF00103BB737B6872
:100A40001B78FB730CE0FB7B184600F01FF8BA7BA9
:100A50007B6813441B78FB73BB7B03F10103BB73FF
:100A6000FB7B002BEFD107F11007BD4680BD00BF17
:100A700080B582B000AF0346FB71FB79184600F0E9
:100A800005F807F10807BD4680BD00BF80B584B0FA
:100A900000AF0346FB7100F035F8FB794FEA131302
:100AA000FB73FB7B184600F02BF9FB7903F00F0377
:100AB000FB73FB7B184600F023F907F11007BD46D6
:100AC00080BD00BF80B584B000AF0346FB71FB79E9
:100AD0004FEA1313FB7300F015F8FB7B03F00F03D1
:100AE000FB73FB7B184600F061F9FB7903F00F0301
:100AF000FB73FB7B184600F059F907F11007BD4660
:100B000080BD00BF80B582B000AF4FF00003FB7125
:100B100045F22013C4F2000345F22012C4F2000291
:100B20001278D2B202F080021A7045F22213C4F297
:100B300000031B78DBB223F00F03FB7145F2221395
:100B4000C4F20003FA7942F00F02D2B21A7045F2F1
:100B50002313C4F200031B78DBB223F00F03FB71F5
:100B600045F22313C4F20003FA791A7045F22413F4
:100B7000C4F200031B78DBB223F00F03FB7145F2D4
:100B80002413C4F20003FA791A7045F22013C4F258
:100B9000000345F22012C4F200021278D2B202F031
:100BA000DF021A7045F22013C4F2000345F220124E
:100BB000C4F200021278D2B242F04002D2B21A70ED
:100BC0004FF00000FFF77AFE45F22013C4F2000355
:100BD00045F22012C4F200021278D2B242F01002A2
:100BE000D2B21A704FF00100FFF768FE45F22113F0
:100BF000C4F200031B78FB7145F22013C4F200031A
:100C000045F22012C4F200021278D2B202F0EF02D2
:100C10001A70FB7903F00803FB7145F22013C4F24C
:100C2000000345F22012C4F200021278D2B242F060
:100C30001002D2B21A704FF00100FFF73FFE45F2EA
:100C40002013C4F2000345F22012C4F2000212780D
:100C5000D2B202F0EF021A70FB79002BB0D145F24C
:100C60002013C4F2000345F22012C4F200021278ED
:100C7000D2B202F0BF021A7045F22013C4F2000390
:100C800045F22012C4F200021278D2B202F08002C1
:100C90001A7045F22213C4F200031B78DBB223F072
:100CA0000F03FB7145F22213C4F20003FA791A70A4
:100CB00045F22313C4F200031B78DBB223F00F03C9
:100CC000FB7145F22313C4F20003FA7942F00F02DC
:100CD000D2B21A7045F22413C4F200031B78DBB2BF
:100CE00023F00F03FB7145F22413C4F20003FA79D9
:100CF00042F00F02D2B21A7007F10807BD4680BD5C
:100D000080B582B000AF0346FB71FFF7FBFE45F2F2
:100D10002013C4F2000345F22012C4F2000212783C
:100D2000D2B242F02002D2B21A7045F22013C4F2BD
:100D3000000345F22012C4F200021278D2B202F08F
:100D4000BF021A7045F22013C4F2000345F22012CC
:100D5000C4F200021278D2B202F0F0021A7045F228
:100D60002013C4F2000345F22012C4F200021278EC
:100D7000D1B2FA7941EA0202D2B242F01002D2B202
:100D80001A704FF00100FFF799FD45F22013C4F2ED
:100D9000000345F22012C4F200021278D2B202F02F
:100DA000EF021A7007F10807BD4680BD80B582B01A
:100DB00000AF0346FB7145F22013C4F2000345F275
:100DC0002012C4F200021278D2B202F09F021A700E
:100DD00045F22013C4F2000345F22012C4F20002CF
:100DE0001278D2B202F0F0021A7045F22013C4F267
:100DF000000345F22012C4F200021278D1B2FA794F
:100E000041EA0202D2B242F01002D2B21A704FF09E
:100E10000100FFF753FD45F22013C4F2000345F231
:100E20002012C4F200021278D2B202F0EF021A705D
:100E300007F10807BD4680BD80B582B000AF03460C
:100E4000FB71FB794FEA1313DBB21A4641F66C33A0
:100E5000C0F200039B5C1846FFF70AFEFB7903F023
:100E60000F0241F66C33C0F200039B5C1846FFF79B
:100E7000FFFD07F10807BD4680BD00BF80B500AF8C
:100E800046F28453C4F200034FF00F021A7000F0D0
:100E9000FFF800F063F800F075F846F28553C4F2ED
:100EA00000034FF017021A7046F28753C4F2000392
:100EB0004FF070021A7080BD80B582B000AF4FF065
:100EC0000003FB7100F0A4FC0346FB7146F294534F
:100ED000C4F2000346F29452C4F200021278D2B275
:100EE00042F02002D2B21A7046F29553C4F20003C7
:100EF00046F29552C4F200021278D2B242F01002C9
:100F0000D2B21A7046F29753C4F2000346F29752D7
:100F1000C4F200021278D2B242F01002D2B21A70B9
:100F2000FB79184600F078FC07F10807BD4680BD44
:100F300080B500AF48F22613C1F6FF731B78002B73
:100F400008D1FFF79BFF48F22613C1F6FF734FF05D
:100F500001021A70FFF7B0FF80BD00BF80B483B0FC
:100F600000AF4FF00003FB7146F26553C4F200037B
:100F70001B78FB71FB79184607F10C07BD4680BC56
:100F8000704700BF80B483B000AF4FF00003FB7127
:100F900046F26753C4F200031B78FB71FB791846D5
:100FA00007F10C07BD4680BC704700BF80B483B01A
:100FB00000AF0346FB7146F26553C4F200031B7891
:100FC000DBB203F00403002BF5D046F24453C4F225
:100FD0000003FA791A7007F10C07BD4680BC704710
:100FE00080B483B000AF4FF00003FB7146F254535E
:100FF000C4F200031B78FB71FB79184607F10C075C
:10100000BD4680BC704700BF80B400AF04E046F22C
:101010005453C4F200031B7846F26753C4F2000332
:101020001B78DBB203F02003002BF0D1BD4680BC5F
:10103000704700BF80B582B000AF4FF00003FB7176
:1010400000F0E6FB0346FB7146F29453C4F2000342
:1010500046F29452C4F200021278D2B242F0030275
:10106000D2B21A7046F29453C4F2000346F294527C
:10107000C4F200021278D2B202F0FC021A70FB79BC
:10108000184600F0C9FB07F10807BD4680BD00BF48
:1010900080B582B000AF4FF00003FB7104E046F270
:1010A0005453C4F200031B7846F26753C4F20003A2
:1010B0001B78DBB203F02003002BF0D100F0A8FB7B
:1010C0000346FB7146F29453C4F2000346F2945275
:1010D000C4F200021278D2B242F00302D2B21A7005
:1010E00046F29453C4F2000346F29452C4F2000252
:1010F0001278D2B202F0FC021A70FB79184600F0A6
:101100008BFB07F10807BD4680BD00BF80B485B0EA
:1011100000AF786039607B68FB6007E0FB684FF0E8
:1011200000021A70FB6803F10103FB603B68002BAF
:101130000CBF00230123DBB23A6802F1FF323A60B0
:10114000002BEBD107F11407BD4680BC704700BFF0
:1011500080B487B000AFF860B9607A60FB683B612B
:10116000BB687B610BE07B691A783B691A703B694D
:1011700003F101033B617B6903F101037B617B6840
:10118000002B0CBF00230123DBB27A6802F1FF328F
:101190007A60002BE7D107F11C07BD4680BC704781
:1011A00080B483B000AF48F22813C1F6FF734FF04C
:1011B00000021A6047F20063C4F200034FF010020D
:1011C0001A7047F21003C4F200034FF001021A70C4
:1011D00047F21003C4F200034FF000025A7247F6C0
:1011E0000003C4F200034FF001029A7047F60003B7
:1011F000C4F200034FF00302DA7047F60003C4F2B2
:1012000000034FF480721A8047F60403C4F200030F
:1012100040F2E802C0F2000292B21A8047F60603DA
:10122000C4F2000347F608021A8047F20463C4F2CE
:1012300000034FF000021A8047F20663C4F2000375
:101240004FF480421A8047F22003C4F200034FF0AB
:1012500009025A7247F23003C4F200034FF00D0244
:101260005A7247F26003C4F200034FF013025A723D
:1012700047F27003C4F200034FF014025A7247F2AF
:101280001003C4F200034FF001021A7147F6000385
:10129000C4F200031B889BB2002BF7D14FF0000370
:1012A0003B6018E03B684FEAC30247F60803C4F20C
:1012B0000003134403F104037B607A68396841F644
:1012C0007C33C0F2000353F821309BB213803B689B
:1012D00003F101033B603B681F2BE3DD47F2100382
:1012E000C4F200034FF001021A7147F21803C4F26E
:1012F00000031B78DBB203F00103DBB2002BF4D157
:1013000047F22803C4F200031B78DBB203F00103A9
:10131000DBB2002BF4D147F23803C4F200031B7890
:10132000DBB203F00103DBB2002BF4D147F2680318
:10133000C4F200031B78DBB203F00103DBB2002B25
:10134000F4D147F27803C4F200031B78DBB203F058
:101350000103DBB2002BF4D147F21003C4F2000307
:101360004FF000021A7047F22003C4F200034FF05E
:1013700000021A7047F23003C4F200034FF000027B
:101380001A7047F26003C4F200034FF000021A70B3
:1013900047F27003C4F200034FF000021A7007F125
:1013A0000C07BD4680BC704780B584B000AF07F124
:1013B0000803FB6044F28000C4F2000040F2050123
:1013C000C0F2180100F09CFA44F20033C4F20003AA
:1013D0004FF002021A7044F20003C4F200034FF00F
:1013E00008021A7044F20023C4F200034FF0030213
:1013F0001A7044F2A163C4F2000340F20812C4F66A
:1014000000121278D2B21A7044F22223C4F20003FE
:101410004FF008021A8044F22023C4F2000341F284
:1014200051021A804FF00003FB714FF01903BB60AB
:101430001AE0FB79DBB24FEA4303DAB244F2252328
:10144000C4F200031B78DBB203F0010342EA03039A
:10145000DBB203F00303FB714FF0780000F0D0F92A
:10146000BB6803F1FF33BB60FB681B68002B03D034
:10147000FB79DBB2032BDCD144F20403C4F200039A
:1014800040F203121A8044F20403C4F200034FF046
:1014900000021A7044F20403C4F200034FF0070282
:1014A0001A7044F20603C4F200034FF000021A70EF
:1014B00044F20803C4F200034FF048021A7044F2E9
:1014C0000403C4F200034FF000021A7044F2010357
:1014D000C4F200034FF002021A7044F2A233C4F2C5
:1014E000000344F2A232C4F200021278D2B242F0F7
:1014F0000102D2B21A7007F11007BD4680BD00BFCD
:1015000080B400AF44F2AA33C4F200034FF4447233
:101510001A8045F62003C4F200034FF01E021A7031
:1015200045F62403C4F200034FF01E021A7045F67C
:101530002803C4F200034FF01E021A7045F62C0374
:10154000C4F200034FF01E021A7045F60013C4F2F5
:1015500000036FF03F021A7045F60313C4F2000354
:101560004FF00C021A7045F60813C4F200036FF036
:101570003F021A7045F60B13C4F200034FF00C0241
:101580001A7045F67603C4F200034FF044021A7055
:10159000BD4680BC704700BF80B500AF72B644F650
:1015A0000003C4F200034FF040021A7047F2100328
:1015B000C4F200034FF000021A7047F22003C4F295
:1015C00000034FF000021A7045F67C03C4F20003DA
:1015D0004FF001021A7044F2E863C4F2000344F2CF
:1015E000E862C4F200021278D2B242F00102D2B232
:1015F0001A70FFF7D5FD45F20020C4F200004FF04D
:101600000701FFF783FD45F20820C4F2000040F215
:101610004061C4F600014FF00702FFF799FD45F263
:101620001020C4F2000040F24861C4F600014FF0FF
:101630000702FFF78DFD45F21820C4F200004FF0BD
:101640000701FFF763FD45F22020C4F200004FF0D0
:101650000701FFF75BFD45F22820C4F200004FF0C0
:101660000701FFF753FD45F23020C4F200004FF0B0
:101670000701FFF74BFD45F26020C4F200004FF078
:101680000601FFF743FD45F27820C4F200004FF059
:101690000701FFF73BFD45F20303C4F2010345F2E6
:1016A0000302C4F201021278D2B242F00202D2B2B4
:1016B0001A7045F21303C4F2010345F21302C4F297
:1016C00001021278D2B242F00202D2B21A7044F28F
:1016D000A033C4F2000344F2A032C4F20002127834
:1016E000D2B242F04002D2B21A7044F2C233C4F213
:1016F000000344F2C232C4F200021278D2B242F0C5
:101700001002D2B21A7045F21210C4F2000040F278
:101710003061C4F600014FF0080200F017F945F2FD
:101720002210C4F2000040F23861C4F600014FF00C
:10173000080200F00BF944F60003C4F200034FF076
:1017400000021A70FFF730FE44F60003C4F20003F3
:101750006FF07F021A70FFF7D3FE44F2B030C4F28C
:10176000000044F2A031C4F200014FF00C0200F07E
:10177000EDF844F2B033C4F2000344F2B032C4F2E4
:1017800000021278D2B202F0FD021A7080BD00BFD2
:101790000000000000000000000000000000000049
:1017A0000000000000000000000000000000000039
:1017B0000000000000000000000000000000000029
:1017C0000000000000000000000000000000000019
:1017D0000000000000000000000000000000000009
:1017E00000000000000000000000000000000000F9
:1017F00000000000000000000000000000000000E9
:101800000230800803D000BF01380046FCD1704789
:10181000EFF3108072B6704780F31088704700BFF6
:10182000AFF30080AFF30080AFF30080AFF3008030
:10183000AFF30080AFF30080AFF30080AFF3008020
:101840000000000000000000000000000000000098
:101850000000000000000000000000000000000088
:101860000000000000000000000000000000000078
:101870000000000000000000000000000000000068
:101880000000000000000000000000000000000058
:101890000000000000000000000000000000000048
:1018A0000000000000000000000000000000000038
:1018B0000000000000000000000000000000000028
:1018C0000000000000000000000000000000000018
:1018D0000000000000000000000000000000000008
:1018E00000000000000000000000000000000000F8
:1018F00000000000000000000000000000000000E8
:1019000080B483B000AF786039603B68DAB27B683E
:101910001A707B6803F101037B603B684FEA132375
:101920003B603B68DAB27B681A707B6803F10103A5
:101930007B603B684FEA13233B603B68DAB27B680D
:101940001A7007F10C07BD4680BC7047032A2DE9C9
:10195000F0070BD83AB1002311F803C000F803C018
:1019600001339342F8D1BDE8F007704782180C4666
:10197000034603E014F8011C03F8011C03F00306FE
:101980001946A44601330134002EF3D11CF00304A0
:10199000634608BFC1EB020C68D06542C4F1040A7B
:1019A0000CEB050733464FEACA0A5CF805604FEABC
:1019B000C408551A08E057F8044F264604FA0AF4FA
:1019C00049EA0404CC5004335C18032D26FA08F9C4
:1019D000A5F104050CEB0306EDDC002302E0F15C4D
:1019E000E154013319199142F9D3BCE753F8404C43
:1019F00041F8404C53F83C4C41F83C4C53F8384CBF
:101A000041F8384C53F8344C41F8344C53F8304CCE
:101A100041F8304C53F82C4C41F82C4C53F8284CDE
:101A200041F8284C53F8244C41F8244C53F8204CEE
:101A300041F8204C53F81C4C41F81C4C53F8184CFE
:101A400041F8184C53F8144C41F8144C53F8104C0E
:101A500041F8104C53F80C4C41F80C4C53F8084C1E
:101A600041F8084C53F8044C41F8044C1C460D4610
:101A700040334031BCF13F0FACF1400CB6DC2146A5
:101A80002B46541B0FE051F8105C43F8105C51F8E2
:101A90000C5C43F80C5C51F8085C43F8085C51F8A6
:101AA000045C43F8045C0F2C0D469C4601F11001C8
:101AB00003F11003A4F11004E5DCCCEB02010023D8
:101AC00003E0EC584CF8034004335E19032903EBA0
:101AD0000C04A1F10401F4DC7FE700BF08B500F0BD
:101AE00017F8074800B10068064901B109680022EB
:101AF000FEF7C0FB044B0BB1AFF30080FEE700BF65
:101B0000000000000000000000000000FEE70000F0
:101B100070B541F6084641F60845C0F20006C0F22D
:101B20000005761BB61006D0002455F82430013489
:101B30009847A642F9D841F6084541F61046C0F24A
:101B40000005C0F20006761B00F058F8B61006D06B
:101B5000002455F8243001349847A642F9D870BDC6
:101B60005258000053000000410000003031323371
:101B7000343536373839414243444546C0000000C9
:101B8000C8000000D0000000D8000000E000000005
:101B9000E0000000E0000000E00000002881FF1FDE
:101BA0002881FF1F2881FF1F2881FF1F2881FF1F19
:101BB0002881FF1F2881FF1F2881FF1F2881FF1F09
:101BC0002881FF1F80010048000000488000004875
:101BD00000010048A001004820020048A00200487F
:101BE00020030048A003004820040048A004004847
:101BF00020050048A005004820060048F8B500BFB1
:101C0000F8BC08BC9E4670475902000065070000FA
:101C1000F8B500BFF8BC08BC9E46704745020000FE
:101C200000000000381C00000080FF1F18010000A9
:081C300020000000000000008C
:101C3800000000000000000000000000000000009C
:101C4800000000000000000000000000000000008C
:101C5800000000000000000000000000000000007C
:101C6800000000000000000000000000000000006C
:101C7800000000000000000000000000000000005C
:101C8800000000000000000000000000000000004C
:101C9800000000000000000000000000000000003C
:101CA800000000000000000000000000000000002C
:101CB800000000000000000000000000000000001C
:101CC800000000000000000000000000000000000C
:101CD80000000000000000000000000000000000FC
:101CE80000000000000000000000000000000000EC
:101CF80000000000000000000000000000000000DC
:101D080000000000000000000000000000000000CB
:101D180000000000000000000000000000000000BB
:101D280000000000000000000000000000000000AB
:101D38000000000000366E01C05D000018000000C1
:081D48000000E02E0000000085
:0400000300000735BD
:00000001FF
