:4000000000800020110800001D3600001D3600001D3600001D3600001D3600001D3600001D3600001D3600001D3600001D3600001D3600001D3600001D3600001D3600007D
:400040001D3600001D3600001D3600001D3600001D3600001D3600001D3600001D3600001D3600001D3600001D3600001D3600001D3600001D3600001D3600001D36000050
:400080001D3600001D3600001D3600001D3600001D3600001D3600001D3600001D3600001D3600001D3600001D3600001D3600001D3600001D3600001D3600001D36000010
:4000C00001000000002000400100000000200140010000000048004001000000004801400100000001000000080002230000087608000323000010760800042300002876FC
:4001000008000523000030760500062300002070050007230000307005000823000060700500FF230000707040000A22000030511000FF220000C05180030C220000000075
:4001400080010D220000000480010E220000000680010F220000000A800010220000000E80011122000000148001122200000016800013220000001A80011422000000403F
:40018000800015220000004280001622000000478000FF220000004C20001823000070644000FF230000006508001A230000005180001B230000000880001C2300008008C1
:4001C00080001D230000000C80001E230000800C80001F230000800E80002023000000188000212300008018800022230000801A800023230000004D800024230000804D59
:40020000800025230000804C800026230000804780002723000000468000282300008046800029230000004580002A230000804580002B230000004480002C2300008044B1
:4002400080002D230000001B80002E230000801B80002F230000801580003023000000198000312300008019800032230000801780003323000000098000342300008009BC
:400280008000352300008007800036230000800B8000372300008005800038230000000D800039230000800D80003A230000800380003B230000000F80003C230000800F10
:4002C00080003D230000004980003E230000804980003F23000000488000402300008048800041230000004380004223000080438000432300008042800044230000804137
:4003000010004523000010501000FF230000005080B51448144B21E05C689968DD688C420CD0002205E0A6180832D6E9008941E902898C460831AA42F5D101E004EB050C24
:400340001C696146002204E008320026002741E902670831A242F7D1143301380028DBD103F044F9010000008838000048F26813C1F6FF731A780AB901201870704700BFB5
:4003800048F20010C1F6FF7008B503682BB140F20003C0F2000303B1984708BD90B583B000AF62B64FF069033B804FF000037B804FF00003BB804FF00003FB8001F078FE04
:4003C0004FF0010001F00EFF4FF000004FF0000101F084FE43F27060C0F2000001F0B8FE02F0BAF902F024FA02F038FA02F064FA00F0A2FB00F0EAFE00F030FC00F05AF982
:400400004FF001004FF0020100F09AF94FF0010000F0B8F903467B807B88022B0DD14FF001004FF0000101F059FE43F27460C0F2000001F08DFE00E000BF00F04FFC034662
:40044000002BF9D100F0ACFF4FF0010001F0A0F803461C464FF0020001F09AF80346002B14BF0023012304EA0303002B21D04FF000004FF0000101F031FE43F27860C0F2B8
:40048000000001F065FE48F27213C1F6FF734FF001021A804FF000004FF0060101F01EFE48F26C13C1F6FF731B88184602F076F863E04FF0020001F06BF803461C464FF08D
:4004C000010001F065F80346002B14BF0023012304EA0303002B21D04FF000004FF0000101F0FCFD43F28060C0F2000001F030FE48F27213C1F6FF734FF002021A804FF0BC
:4005000000004FF0060101F0E9FD48F26E13C1F6FF731B88184602F041F82EE04FF0020001F036F80346002B27D04FF0010001F02FF80346002B20D04FF000004FF000017A
:4005400001F0CCFD43F28860C0F2000001F000FE48F27213C1F6FF734FF003021A804FF000004FF0060101F0B9FD48F27013C1F6FF731B88184602F011F84FF0000001F0FF
:4005800067F90346FB80FA884FF6FF739A4200F08E8048F27213C1F6FF731B88012B0DD148F26C13C1F6FF73FA881A8048F27413C1F6FF734FF001021A8028E048F27213E4
:4005C000C1F6FF731B88022B0DD148F26E13C1F6FF73FA881A8048F27413C1F6FF734FF001021A8013E048F27213C1F6FF731B88032B0CD148F27013C1F6FF73FA881A80D3
:4006000048F27413C1F6FF734FF001021A8048F27413C1F6FF731B88012B41D14FF002004FF0400100F08CF84FF001004FF0030100F086F84FF0010000F0A4F803467B80F3
:400640007B88DBB2184601F087FF48F26C13C1F6FF731B884FF02000194600F071F848F26E13C1F6FF731B884FF02000194600F067F848F27013C1F6FF731B884FF02000FD
:40068000194600F05DF84FF002004FF0830100F057F848F27413C1F6FF734FF000021A8048F27213C1F6FF734FF000021A8000F0D5FAC2E680B500AF4FF01D004FF00101E3
:4006C00000F03EF84FF032004FF03C0100F038F84FF035004FF0140100F032F84FF00D004FF0400100F02CF84FF026004FF0080100F026F84FF006004FF0480100F020F875
:400700004FF01B004FF0550100F01AF84FF01C004FF0050100F014F84FF011004FF0050100F00EF84FF010004FF0A40100F008F84FF003004FF00D0100F002F880BD00BF09
:4007400080B582B000AF02460B46FA80BB8002F06FF802F083F8FB88DBB2A3F18003DBB2184602F037F8BB88DBB2184602F032F802F008F80346002BFAD007F10807BD4698
:4007800080BD00BF80B584B000AF0346FB804FF00003BB814FF00003FB8102F049F802F05DF8FB88DBB2184602F014F84FF0000002F010F84FF0000002F00CF84FF0000092
:4007C00002F008F801F0DEFF0346002BFAD04FF00003FB8112E002F017F80346BB814FF001004FF00E0101F079FCBB89DBB2184601F0B2FEFB8903F10103FB81FB89012B59
:40080000E9D9BB89184607F11007BD4680BD00BF80B400AF074B1C7844F001041C70064B1A78D2B2054B1A70FFF772FDBD4680BC70470000E8460040F8460040BC760040BE
:4008400080B582B000AF4EF60C53CEF2000340F20042C0F2FA521A604EF61453CEF200034EF61452CEF20002126842F400721A604FF000037B6014E07A687B684FEA830107
:4008800040F20003C0F200030B441B68194648F20003C1F6FF7343F822107B6803F101037B607B682F2BE7D947F2BC63C4F200031B78DAB248F23323C1F6FF731A704EF6E0
:4008C0000853CEF2000348F20002C1F6FF721A6002F0B4FA01F094FA07F10807BD4680BD80B582B000AF00F00FFA46F22953C4F200034FF00B021A7046F23953C4F20003C7
:400900004FF005021A7001F003FA0346FB7146F29843C4F2000346F29842C4F200021278D2B242F00302D2B21A7046F29943C4F2000346F29942C4F200021278D2B242F083
:400940000302D2B21A70FB79184601F0E5F946F22843C4F200034FF434421A8046F24843C4F200034FF6FF721A8046F28843C4F200034FF007021A7001F0CAF90346FB7151
:4009800046F29B53C4F2000346F29B52C4F200021278D2B242F00302D2B21A7046F29853C4F2000346F29852C4F200021278D2B242F00302D2B21A70FB79184601F0ACF9B7
:4009C00046F22B53C4F200034FF0FF321A7046F24B53C4F200034FF0FF321A7046F20B53C4F200034FF0FF321A7046F22853C4F200034FF0FF321A7046F25853C4F20003BA
:400A00004FF0FF321A7046F24853C4F200034FF0FF321A704FF0100001F0DAFA4FF0100041F6D511C0F2000101F066FA4FF010004FF0070101F086FA01F058F84FF0070024
:400A400002F0A6F94FF0080002F0A2F94FF0090002F09EF946F27943C4F200034FF004021A7001F05FF800F07BFA07F10807BD4680BD00BF80B582B000AF01F049F903467F
:400A8000FB7146F29843C4F2000346F29842C4F200021278D2B242F02002D2B21A7001F0BFF801F07DF800F075FA44F2BB33C4F2000344F2BB32C4F200021278D2B242F05F
:400AC0001002D2B21A7044F2AB33C4F2000344F2AB32C4F200021278D2B242F01002D2B21A7045F67003C4F2000345F67002C4F200021278D2B242F00102D2B21A70FB794D
:400B0000184601F009F94FF0100001F047FA46F27943C4F2000346F27942C4F200021278D2B26FEA42626FEA5262D2B21A7007F10807BD4680BD00BF80B500AF48F27913B5
:400B4000C1F6FF731B78002B08D1FFF7C9FE48F27913C1F6FF734FF001021A70FFF78AFF00F0BEFF48F27813C1F6FF734FF001021A7080BD80B485B000AF0346FB71FB79D9
:400B800003F10103FB71FB79072B18D0FB794FEAD303BB73FB7903F007034FF0010202FA03F3FB73BA7B48F20413C1F6FF739A5CFB7B02EA0303DBB2002BE0D000E000BF6B
:400BC000FB79184607F11407BD4680BC704700BF80B584B000AF0346FB71FA7943F2DC63C0F200039B5CFB73FA7948F20813C1F6FF739B5C184600F0FDF946F25B53C4F2C5
:400C00000003F97B48F21012C1F6FF72525C1A7007F11007BD4680BD80B582B000AF0346FB7148F27A13C1F6FF734FF000021A7048F27B13C1F6FF73FA791A7048F27A13F7
:400C4000C1F6FF736FF07E021A70FB79184600F0E9F807F10807BD4680BD00BF80B500AF48F27A13C1F6FF734FF000021A7048F27B13C1F6FF734FF0FF321A7048F27B13E7
:400C8000C1F6FF731B78DBB21846FFF773FF03461A4648F27B13C1F6FF731A7048F27B13C1F6FF731B78DBB2062B16D848F27A13C1F6FF731B78DBB243F00103DAB248F2C4
:400CC0007A13C1F6FF731A7048F27B13C1F6FF731B78DBB2184600F0A5F880BD80B400AF48F27A13C1F6FF731B78DBB203F00103DBB2002B02D04FF0010301E04FF00003A1
:400D00001846BD4680BC704780B582B000AF4FF00003FB7107E0FB79184600F045F8FB7903F10103FB71FB79062BF4D907F10807BD4680BD80B584B000AF0346FB71FA79E4
:400D400043F2AC63C0F200039B5CBB73FA7943F2B463C0F200039B5CFB73FA7943F29063C0F2000353F822304FF009021A70BA7B43F2BC63C0F2000353F82220B97B43F287
:400D8000BC63C0F2000353F821301978FB7B41EA0303DBB21370FB79184601F0F9FF07F11007BD4680BD00BF80B584B000AF0346FB71FA7943F2AC63C0F200039B5CBB7354
:400DC000FA7943F2B463C0F200039B5CFB73FB79184602F005F8BA7B43F2BC63C0F2000353F82220B97B43F2BC63C0F2000353F821301B781946FB7B6FEA0303DBB201EA76
:400E00000303DBB2DBB21370FA7943F29063C0F2000353F822304FF008021A7007F11007BD4680BD80B582B000AF0346FB71FB791846FFF7CDFE46F27943C4F2000346F2BD
:400E40007942C4F200021278D2B242F00102D2B21A7045F67003C4F2000345F67002C4F200021278D2B202F0FE021A70FB791846FFF760FF46F27943C4F2000346F2794291
:400E8000C4F200021278D2B242F00202D2B21A7007F10807BD4680BD80B582B000AF0346FB7146F27943C4F2000346F27942C4F200021278D2B202F0FC021A70FA7946F28B
:400EC0001853C4F200031B78DBB24FEA032399B248F27C13C1F6FF7323F81210FA79F97948F27C13C1F6FF7333F8111046F20853C4F200031B78DBB241EA030399B248F290
:400F00007C13C1F6FF7323F81210FA79F97948F27C13C1F6FF7333F811306FEA030399B248F27C13C1F6FF7323F81210FB791846FFF73AFF4FF0000000F05CF845F670036E
:400F4000C4F2000345F67002C4F200021278D2B242F00102D2B21A7007F10807BD4680BD80B500AF45F62003C4F200034FF010021A7045F62103C4F200034FF002021A7000
:400F80004FF0040000F07AF84FF0000000F032F880BD00BF80B400AF45F62003C4F2000345F62002C4F200021278D2B242F01002D2B21A7044F2A833C4F2000344F2A832EE
:400FC000C4F200021278D2B242F00102D2B21A7044F2B833C4F2000344F2B832C4F200021278D2B242F00102D2B21A70BD4680BC704700BF80B483B000AF0346FB7145F62A
:401000008033C4F20003FA791A7045F68033C4F20003FA791A7007F10C07BD4680BC704780B483B000AF45F62003C4F200031B78DBB203F00C034FEA5303FB7145F62103F9
:40104000C4F200031B78DBB203F00403002B03D0FB7903F10103FB7144F20863C4F20003FA7902F1924202F58E721278D2B21A7007F10C07BD4680BC704700BF80B582B07D
:4010800000AF0346FB7145F62003C4F2000345F62002C4F200021278D2B202F0F3021A7045F62003C4F2000345F62002C4F200021278D1B2FA7902F00C0241EA0202D2B2C2
:4010C0001A70FFF7ADFF07F10807BD4680BD00BF80B483B000AF0346FB7146F22953C4F20003FA791A7046F23953C4F20003FA794FEA5202D2B21A7007F10C07BD4680BCB4
:40110000704700BF80B485B000AF0346FB71FA7943F2DC63C0F200039B5CFB73FA79F97948F27C13C1F6FF7333F8111048F28C13C1F6FF7323F81210FA7948F29C13C1F6F6
:40114000FF734FF000019954FA7948F2A413C1F6FF734FF000019954FB7B002B0DD0FB7B03F1FF32F97B48F22013C1F6FF73595C48F2B413C1F6FF739954FA79F97948F208
:401180007C13C1F6FF7333F8111048F2D013C1F6FF7323F8121007F11407BD4680BC704780B582B000AF0346FB71FB791846FFF733FDFFF793FD0346002BFAD1FB79184645
:4011C000FFF7A0FF07F10807BD4680BD80B582B000AF4FF00003FB7107E0FB791846FFF7DFFFFB7903F10103FB71FB79062BF4D907F10807BD4680BD80B586B000AF0346CE
:40120000FB71FA7943F2DC63C0F200039B5CBB75BA7D48F21813C1F6FF739B5CFB75FA7948F27C13C1F6FF7333F81230BB82FA7948F2D013C1F6FF7333F81230BA8A104684
:40124000194600F0A9FB0346BB82FA7948F2D013C1F6FF73B98A23F81210FB79184600F031FCFA7948F28C13C1F6FF7333F81230BA8A9A420ED3FA7948F28C13C1F6FF7375
:4012800033F81230BA8AC3EB02037B824FF00103BB750DE0FA7948F28C13C1F6FF7333F81220BB8AC3EB02037B824FF00003BB75FB7D7A8A9A423ED8FA7948F28C13C1F6C3
:4012C000FF7333F812304FEA0323FB60FA7948F29C13C1F6FF739B5CFA6842EA0303FB60BB8AFA681344FB60FA7948F28C13C1F6FF7333F81230FA68C3EB0203FB60FA79CC
:40130000FB684FEA132399B248F28C13C1F6FF7323F81210FA79FB68D9B248F29C13C1F6FF739954FA7948F2A413C1F6FF734FF0000199542FE0BB7D002B14D07B8AFF2BB2
:4013400008D9FA7948F2A413C1F6FF734FF0FF31995420E0FA797B8AD9B248F2A413C1F6FF73995417E0FA7948F28C13C1F6FF73B98A23F81210FA7948F29C13C1F6FF7328
:401380004FF000019954FA7948F2A413C1F6FF734FF00001995407F11807BD4680BD00BF80B582B000AF4FF000037B711FE07B794FEAD303BB717B7903F007034FF001028B
:4013C00002FA03F3FB71BA7948F20413C1F6FF739A5CFB7902EA0303DBB2002B03D07B791846FFF709FF7B7903F101037B717B79062BDCD907F10807BD4680BD80B485B049
:4014000000AF0346FB71FB794FEAD303BB72FB7903F007034FF0010202FA03F3FB72FA7943F2DC63C0F200039B5C3B733A7B48F21413C1F6FF739B5C7B733A7B48F21C1303
:40144000C1F6FF739B5CBB733A7B48F22013C1F6FF739B5CFB733B7B002B0BD14FF002037B727A7A48F2B413C1F6FF734FF00001995403E03B7B03F1FF337B72BA7A48F21B
:40148000AC13C1F6FF739A5CFB7A02EA0303DBB2002B29D0FA7948F2A413C1F6FF739B5C1A46797BBB7BC3EB01039A4256DABA7AB97A48F2AC13C1F6FF735B5C1946FB7A56
:4014C0006FEA0303DBB201EA0303DBB2D9B248F2AC13C1F6FF7399547A7A48F2B413C1F6FF73F97B99543CE0FA7948F2A413C1F6FF739B5C1A46797BBB7B0B449A4225DD12
:401500007A7A48F2B413C1F6FF739B5C002B14BF00210121C9B203F1FF33D8B248F2B413C1F6FF73985400291AD0BA7AB97A48F2AC13C1F6FF73595CFB7A41EA0303D9B292
:4015400048F2AC13C1F6FF7399540AE07A7A48F2B413C1F6FF73F97B995402E000BF00E000BFBA7A48F2AC13C1F6FF739A5CFB7A02EA0303DBB2002B02D04FF0010301E052
:401580004FF00003184607F11407BD4680BC704780B584B000AF0346FB71FA7943F2E463C0F200039B5C7B73FA7943F2E863C0F200039A5C7B7B1344BB734FF00003FB7363
:4015C0007B7B1846FFF71AFF0346002B02D04FF00103FB737B7B03F101037B737A7BBB7B9A42EDD3FB7B184607F11007BD4680BD80B485B000AF13460246FA710A46BA712C
:401600007B714FF0FF33BB724FF00003FB72FA7948F2A413C1F6FF731344FB604FF000037B7218E07A7AFB6813441B787A799A420DD27A7AFB6813441B78FA7A9A4206D2B3
:401640007B7ABB727A7AFB6813441B78FB727B7A03F101037B727A7ABB799A42E2D3BB7A184607F11407BD4680BC704780B487B000AFF871B9717A717B80BA7948F2A413B4
:40168000C1F6FF7313447B61FB7903F1FF337B72FB7903F10103BB72FA797B6913441A7848F2B013C1F6FF735A70FB79002B10D148F2B013C1F6FF734FF000021A70BA7AD9
:4016C0007B6913441A7848F2B013C1F6FF739A7028E0FA797B7903F1FF339A4210D17A7A7B6913441A7848F2B013C1F6FF731A7048F2B013C1F6FF734FF000029A7011E0C8
:401700007A7A7B6913441A7848F2B013C1F6FF731A70BA7A7B6913441A7848F2B013C1F6FF739A7048F2B013C1F6FF731B7897F820209A420FD248F2B013C1F6FF731A780A
:4017400097F82030C3EB0203DAB248F2B013C1F6FF731A7006E048F2B013C1F6FF734FF000021A7048F2B013C1F6FF735A7897F82030C3EB0203DAB248F2B013C1F6FF7388
:401780005A7048F2B013C1F6FF739B7897F820209A420FD248F2B013C1F6FF739A7897F82030C3EB0203DAB248F2B013C1F6FF739A7006E048F2B013C1F6FF734FF00002C7
:4017C0009A7048F2B013C1F6FF739B781A4648F2B013C1F6FF731B78C3EB0203FB6048F2B013C1F6FF731B781A4648F2B013C1F6FF735B781A4448F2B013C1F6FF739B78D6
:4018000013443B61FB684FEA03223B6992FBF3F2FB794FEA032313443B613B69002B05DA7B794FEA03233A6913443B617A883B6902FB03F33B613B6903F5FE434FEA1343E0
:40184000FB72FB7A184607F11C07BD4680BC704780B586B002AF0346FB71FA7948F22413C1F6FF739B5C7B72FA7943F2F063C0F200039B5CBB72FA7943F2E463C0F20003DD
:401880009B5CBB73FA7943F2E863C0F200039B5CFB73FA7948F21413C1F6FF739B5CB97BFA7B084611461A46FFF7A2FE0346FB72FB7AFF2B55D0FA7943F2EC63C0F2000398
:4018C00033F812C0FA7948F21813C1F6FF73985CF97ABA7BFB7B0090084611461A466346FFF7C4FE0346BB81BB7A03F01F03002B48D07B7A03F101033B727A7A48F22413D1
:40190000C1F6FF739B5C002B10D13A7ABB89D9B248F22413C1F6FF7399547A7A48F22413C1F6FF734FF0010199542EE0BB7A03F00803002B28D03A7A48F22413C1F6FF7303
:401940009B5CBA891046194600F026F80346BB813A7ABB89D9B248F22413C1F6FF73995413E04FF6FF73BB81BB7A03F01F03002B0BD07A7A48F22413C1F6FF734FF00001D7
:40198000995402E000BF00E000BFBB89184607F11007BD4680BD00BF80B485B000AF02460B46FA80BB80FA88BB881344FB60BB884FEA4303FA681344FB60FB684FEA930365
:4019C000FB60FB689BB2184607F11407BD4680BC704700BF80B500AF48F27B13C1F6FF731B78DBB21846FFF757FA48F27A13C1F6FF731B78DBB25BB2002B0EDA48F27A1325
:401A0000C1F6FF731B78DBB21A4602F0FE0248F27A13C1F6FF731A702FE048F27B13C1F6FF731B78DBB21846FFF7A4F803461A4648F27B13C1F6FF731A7048F27B13C1F6DE
:401A4000FF731B78DBB2062B09D848F27B13C1F6FF731B78DBB21846FFF7E4F90DE048F27A13C1F6FF731B78DBB21A4602F0FE0248F27A13C1F6FF731A7080BD80B582B013
:401A800000AF0346FB71FB791846FFF7C5F807F10807BD4680BD00BF80B500AFFFF71EF90346184680BD00BF80B582B000AF0346FB71FB791846FFF70BFB07F10807BD4600
:401AC00080BD00BF80B582B000AF0346FB71FB79184601F051FB07F10807BD4680BD00BF80B500AF01F07CFC80BD00BF80B500AF00F002F880BD00BF80B582B000AF4FF0A2
:401B00000003FB7107E0FB79184601F069F9FB7903F10103FB71FB79092BF4D907F10807BD4680BD80B500AF4FF0000000F05AF845F64003C4F2000345F64002C4F20002C5
:401B40001278D2B242F02002D2B21A7045F64003C4F2000345F64002C4F200021278D2B202F0FB021A7045F6C723C4F2000345F6C722C4F200021278D2B202F0E7021A70D5
:401B800045F6C723C4F2000345F6C722C4F200021278D2B242F01002D2B21A7080BD00BF80B400AF44F2A733C4F2000344F2A732C4F200021278D2B242F00102D2B21A704B
:401BC00044F2B733C4F2000344F2B732C4F200021278D2B242F00102D2B21A70BD4680BC704700BF80B483B000AF0346FB7145F64003C4F2000345F64002C4F2000212786E
:401C0000D2B2114601F0FC01FA7902F0030241EA0202D2B21A7007F10C07BD4680BC704780B400AF44F2A233C4F2000344F2A232C4F200021278D2B242F00102D2B21A7079
:401C4000BD4680BC704700BF0000000000000000000000000000000000000000000000000000000000000000000000000000000000000000000000000000000000000000AF
:401C80000000000000000000000000000000000000000000000000000000000000000000000000000000000000000000000000000000000000000000000000000000000024
:401CC00000000000000000000000000000000000000000000000000000000000000000000000000000000000000000000000000000000000000000000000000000000000E4
:401D00000230800803D000BF01380046FCD17047EFF3108072B6704780F31088704700BFAFF30080AFF30080AFF30080AFF30080AFF30080AFF30080AFF30080AFF3008072
:401D40000000000000000000000000000000000000000000000000000000000000000000000000000000000000000000000000000000000000000000000000000000000063
:401D80000000000000000000000000000000000000000000000000000000000000000000000000000000000000000000000000000000000000000000000000000000000023
:401DC00000000000000000000000000000000000000000000000000000000000000000000000000000000000000000000000000000000000000000000000000000000000E3
:401E000080B483B000AF48F2B913C1F6FF734FF07F021A7048F2B813C1F6FF736FF07F021A704FF07F03FB710FE0FB794FEAC30303F1804303F5F043FA7902F1FF32D2B2EF
:401E40001A70FB7903F1FF33FB71FB79002BECD1FB794FEAC30303F1804303F5F0434FF000021A7007F10C07BD4680BC704700BF80B483B000AF0346FB7101BE07F10C0701
:401E8000BD4680BC704700BF80B582B000AF78600BE048F26013C1F6FF731B681846FFF72FFF7B68A3F500437B607B68B3F5004FEFD848F25813C1F6FF731B687A6802FB4F
:401EC00003F31846FFF71CFF07F10807BD4680BD80B582B000AF0346FB80FA8848F25C13C1F6FF731B7803FB02F31846FFF708FF07F10807BD4680BD80B485B000AF03467F
:401F00003960FB714EF60853CEF200031B68FB60FB7903F110034FEA8302FB6813441B68BB60FB7903F110034FEA8302FB6813443A681A60BB68184607F11407BD4680BCE9
:401F4000704700BF80B582B000AF02460B46FA71BB71BB79072B07D9BB79072B8CBF002301231846FFF784FFFB791F2B07D9FB791F2B8CBF002301231846FFF779FFFB7962
:401F800003F1604303F56443BA794FEA4212D2B21A7007F10807BD4680BD00BF80B485B000AF0346FB714EF20013CEF20003FB60FB7903F01F034FF0010202FA03F31A46BC
:401FC000FB681A6007F11407BD4680BC704700BF80B485B000AF0346FB714EF28013CEF20003FB60FB7903F01F034FF0010202FA03F31A46FB681A6007F11407BD4680BC32
:40200000704700BF80B500AF4FF02800FFF73CFF4FF0030000F05AFA4FF00500FFF734FF4FF0030000F052FA4FF00F00FFF72CFF4FF0030000F04AFA4FF00100FFF724FFFF
:402040004FF0020000F042FA4FF00500FFF71CFF4FF0060000F0C6F84FF00E0000F0C2F84FF02C0000F0BEF84FF0080000F0BAF84FF0010000F0B6F84FF00C0000F0B2F8F7
:402080004FF0030000F0AEF84FF00500FFF7FCFE80BD00BF80B500AF4FF00C0000F0A2F848F2C013C1F6FF734FF001021A7080BD80B500AF48F2C113C1F6FF731B78002B47
:4020C00008D1FFF79FFF48F2C113C1F6FF734FF001021A70FFF7DEFF80BD00BF80B582B000AF02460B46FA71BB71FB79032B2AD801A252F823F000BF092100001921000094
:402100002921000039210000BB79A3F18003DBB2184600F067F816E0BB79A3F14003DBB2184600F05FF80EE0BB79A3F16C03DBB2184600F057F806E0BB79A3F12C03DBB28A
:40214000184600F04FF807F10807BD4680BD00BF80B584B000AF78604FF00103BB737B681B78FB730CE0FB7B184600F01FF8BA7B7B6813441B78FB73BB7B03F10103BB73EC
:40218000FB7B002BEFD107F11007BD4680BD00BF80B582B000AF0346FB71FB79184600F005F807F10807BD4680BD00BF80B584B000AF0346FB7100F035F8FB794FEA131363
:4021C000FB73FB7B184600F02BF9FB7903F00F03FB73FB7B184600F023F907F11007BD4680BD00BF80B584B000AF0346FB71FB794FEA1313FB7300F015F8FB7B03F00F032E
:40220000FB73FB7B184600F061F9FB7903F00F03FB73FB7B184600F059F907F11007BD4680BD00BF80B582B000AF4FF00003FB7145F22013C4F2000345F22012C4F20002FF
:402240001278D2B202F080021A7045F22213C4F200031B78DBB223F00F03FB7145F22213C4F20003FA7942F00F02D2B21A7045F22313C4F200031B78DBB223F00F03FB71BC
:4022800045F22313C4F20003FA791A7045F22413C4F200031B78DBB223F00F03FB7145F22413C4F20003FA791A7045F22013C4F2000345F22012C4F200021278D2B202F0BB
:4022C000DF021A7045F22013C4F2000345F22012C4F200021278D2B242F04002D2B21A704FF00000FFF7F4FD45F22013C4F2000345F22012C4F200021278D2B242F01002E3
:40230000D2B21A704FF00100FFF7E2FD45F22113C4F200031B78FB7145F22013C4F2000345F22012C4F200021278D2B202F0EF021A70FB7903F00803FB7145F22013C4F29A
:40234000000345F22012C4F200021278D2B242F01002D2B21A704FF00100FFF7B9FD45F22013C4F2000345F22012C4F200021278D2B202F0EF021A70FB79002BB0D145F2D7
:402380002013C4F2000345F22012C4F200021278D2B202F0BF021A7045F22013C4F2000345F22012C4F200021278D2B202F080021A7045F22213C4F200031B78DBB223F01D
:4023C0000F03FB7145F22213C4F20003FA791A7045F22313C4F200031B78DBB223F00F03FB7145F22313C4F20003FA7942F00F02D2B21A7045F22413C4F200031B78DBB235
:4024000023F00F03FB7145F22413C4F20003FA7942F00F02D2B21A7007F10807BD4680BD80B582B000AF0346FB71FFF7FBFE45F22013C4F2000345F22012C4F20002127851
:40244000D2B242F02002D2B21A7045F22013C4F2000345F22012C4F200021278D2B202F0BF021A7045F22013C4F2000345F22012C4F200021278D2B202F0F0021A7045F2F0
:402480002013C4F2000345F22012C4F200021278D1B2FA7941EA0202D2B242F01002D2B21A704FF00100FFF713FD45F22013C4F2000345F22012C4F200021278D2B202F000
:4024C000EF021A7007F10807BD4680BD80B582B000AF0346FB7145F22013C4F2000345F22012C4F200021278D2B202F09F021A7045F22013C4F2000345F22012C4F200029C
:402500001278D2B202F0F0021A7045F22013C4F2000345F22012C4F200021278D1B2FA7941EA0202D2B242F01002D2B21A704FF00100FFF7CDFC45F22013C4F2000345F2FD
:402540002012C4F200021278D2B202F0EF021A7007F10807BD4680BD80B582B000AF0346FB71FB794FEA1313DBB21A4643F20C73C0F200039B5C1846FFF70AFEFB7903F001
:402580000F0243F20C73C0F200039B5C1846FFF7FFFD07F10807BD4680BD00BF80B586B000AF0346FB804FF00003BB754FF00003FB752AE0B87DFA884CF6CD43CCF6CC436E
:4025C000A3FB02134FEAD3010B464FEA83030B444FEA4303C3EB02039BB2DBB203F13003DAB207F1180101EB000303F8102CFA884CF6CD43CCF6CC43A3FB02134FEAD3035F
:40260000FB80BB7D03F10103BB75FB88092BD1D8B87DFA884CF6CD43CCF6CC43A3FB02134FEAD3010B464FEA83030B444FEA4303C3EB02039BB2DBB203F13003DAB207F1AF
:40264000180101EB000303F8102CBB7DFB7512E0FA7DBB7DC3EB0203BA7D07F118010A4412F8102C07F118010B4403F8082CBB7D03F1FF33BB75BB7DFF2BE9D1FB7D03F19E
:40268000010307F1180213444FF0000203F8082C07F110031846FFF75BFD07F11807BD4680BD00BF80B500AF46F28D43C4F200034FF00F021A7000F0FFF800F063F800F0CF
:4026C00075F846F28C43C4F200034FF000021A7046F28F43C4F200034FF000021A7080BD80B582B000AF4FF00003FB71FFF710FB0346FB7146F29D43C4F2000346F29D42B5
:40270000C4F200021278D2B242F02002D2B21A7046F29C43C4F2000346F29C42C4F200021278D2B242F01002D2B21A7046F29F43C4F2000346F29F42C4F200021278D2B2C1
:4027400042F01002D2B21A70FB791846FFF7E4FA07F10807BD4680BD80B500AF48F2C213C1F6FF731B78002B08D1FFF79BFF48F2C213C1F6FF734FF001021A70FFF7B0FF2E
:4027800080BD00BF80B483B000AF4FF00003FB7146F26C43C4F200031B78FB71FB79184607F10C07BD4680BC704700BF80B483B000AF4FF00003FB7146F26F43C4F20003C1
:4027C0001B78FB71FB79184607F10C07BD4680BC704700BF80B483B000AF0346FB7146F26C43C4F200031B78DBB203F00403002BF5D046F24C43C4F20003FA791A7007F15E
:402800000C07BD4680BC704780B483B000AF4FF00003FB7146F25C43C4F200031B78FB71FB79184607F10C07BD4680BC704700BF80B400AF04E046F25C43C4F200031B78C0
:4028400046F26F43C4F200031B78DBB203F02003002BF0D1BD4680BC704700BF80B582B000AF4FF00003FB71FFF752FA0346FB7146F29C43C4F2000346F29C42C4F2000285
:402880001278D2B242F00302D2B21A7046F29C43C4F2000346F29C42C4F200021278D2B202F0FC021A70FB791846FFF735FA07F10807BD4680BD00BF80B582B000AF4FF04D
:4028C0000003FB7104E046F25C43C4F200031B7846F26F43C4F200031B78DBB203F02003002BF0D1FFF714FA0346FB7146F29C43C4F2000346F29C42C4F200021278D2B238
:4029000042F00302D2B21A7046F29C43C4F2000346F29C42C4F200021278D2B202F0FC021A70FB791846FFF7F7F907F10807BD4680BD00BF80B485B000AF786039607B6802
:40294000FB6007E0FB684FF000021A70FB6803F10103FB603B68002B0CBF00230123DBB23A6802F1FF323A60002BEBD107F11407BD4680BC704700BF80B487B000AFF86043
:40298000B9607A60FB683B61BB687B610BE07B691A783B691A703B6903F101033B617B6903F101037B617B68002B0CBF00230123DBB27A6802F1FF327A60002BE7D107F13F
:4029C0001C07BD4680BC704780B483B000AF48F2C813C1F6FF734FF000021A6047F20063C4F200034FF010021A7047F21003C4F200034FF001021A7047F21003C4F20003A9
:402A00004FF000025A7247F60003C4F200034FF001029A7047F60003C4F200034FF00302DA7047F60003C4F200034FF40A721A8047F60403C4F2000340F2E802C0F200029E
:402A400092B21A8047F60603C4F2000347F608021A8047F20463C4F200034FF000021A8047F20663C4F200034FF480421A8047F22003C4F200034FF009025A7247F23003D3
:402A8000C4F200034FF00B025A7247F26003C4F200034FF017025A7247F27003C4F200034FF019025A7247F21003C4F200034FF001021A7147F60003C4F200031B889BB286
:402AC000002BF7D14FF000033B6018E03B684FEAC30247F60803C4F20003134403F104037B607A68396843F21C73C0F2000353F821309BB213803B6803F101033B603B68EE
:402B0000442BE3DD47F21003C4F200034FF001021A7147F21803C4F200031B78DBB203F00103DBB2002BF4D147F22803C4F200031B78DBB203F00103DBB2002BF4D147F209
:402B40003803C4F200031B78DBB203F00103DBB2002BF4D147F26803C4F200031B78DBB203F00103DBB2002BF4D147F27803C4F200031B78DBB203F00103DBB2002BF4D1DB
:402B800047F21003C4F200034FF000021A7047F22003C4F200034FF000021A7047F23003C4F200034FF000021A7047F26003C4F200034FF000021A7047F27003C4F20003F0
:402BC0004FF000021A7007F10C07BD4680BC704780B584B000AF07F10803FB6044F28000C4F2000040F20101C0F2180100F04CFA44F28400C4F2000040F20501C0F218017F
:402C000000F042FA44F20033C4F200034FF002021A7044F20003C4F200034FF008021A7044F20023C4F200034FF003021A7044F2A163C4F2000340F20812C4F6001212783F
:402C4000D2B21A7044F22223C4F200034FF008021A8044F20003C4F200034FF008021A7044F22023C4F2000341F251021A804FF00003FB714FF49863BB6016E0FB79DBB21A
:402C80004FEA4303DAB244F22523C4F200031B78DBB203F0010342EA0303DBB203F00303FB71BB6803F1FF33BB60FB681B68002B03D0FB79DBB2032BE0D144F20403C4F27C
:402CC000000340F203121A8044F20403C4F200034FF000021A7044F20403C4F200034FF007021A7044F20603C4F200034FF000021A7044F20803C4F200034FF048021A7097
:402D000044F20403C4F200034FF000021A7044F20103C4F200034FF002021A7044F2A233C4F2000344F2A232C4F200021278D2B242F00302D2B21A7007F11007BD4680BDEA
:402D400080B400AF45F2FD13C4F200034FF020021A7045F67003C4F200034FF000021A7045F6C323C4F200034FF020021A7045F60033C4F200034FF003021A7045F67603E5
:402D8000C4F200034FF044021A70BD4680BC704780B483B000AF0346FB71FB79092B19D8FA7943F63003C0F2000353F82220F97943F63003C0F2000353F821301978F8799F
:402DC00043F65803C0F200031B5C41EA0303DBB2137000E000BF07F10C07BD4680BC704780B483B000AF0346FB71FB79092B1ED8FA7943F63003C0F2000353F82220F97936
:402E000043F63003C0F2000353F821301B781946F87943F65803C0F200031B5C6FEA0303DBB201EA0303DBB2DBB2137000E000BF07F10C07BD4680BC704700BF80B500AFF5
:402E400072B644F60003C4F200036FF03F021A7047F21003C4F200034FF000021A7047F22003C4F200034FF000021A7045F67C03C4F200034FF001021A7044F2E863C4F2E4
:402E8000000344F2E862C4F200021278D2B242F00102D2B21A70FFF797FD45F20020C4F2000041F2A851C4F600014FF00702FFF763FD45F20820C4F2000041F2B051C4F667
:402EC00000014FF00702FFF757FD45F21020C4F2000041F2B851C4F600014FF00702FFF74BFD45F21820C4F200004FF00701FFF721FD45F22020C4F200004FF00701FFF7BB
:402F000019FD45F22820C4F200004FF00701FFF711FD45F23020C4F200004FF00701FFF709FD45F26020C4F200004FF00601FFF701FD45F27820C4F200004FF00701FFF712
:402F4000F9FC45F67003C4F200034FF440721A8045F64803C4F200034FF003021A8045F20303C4F2010345F20302C4F201021278D2B242F00202D2B21A7045F21303C4F208
:402F8000010345F21302C4F201021278D2B242F00202D2B21A7044F2A033C4F2000344F2A032C4F200021278D2B242F04002D2B21A7044F2C233C4F2000344F2C232C4F2E0
:402FC00000021278D2B242F01002D2B21A7045F20210C4F2000041F28851C4F600014FF0080200F03BFA45F21210C4F2000041F29051C4F600014FF0080200F02FFA45F2C4
:40300000F210C4F2000041F29851C4F600014FF0080200F023FA45F22210C4F2000041F2A051C4F600014FF0080200F017FA44F60003C4F200034FF000021A70FFF7C8FDE7
:4030400044F60003C4F200036FF07F021A70FFF777FE44F2B030C4F2000044F2A031C4F200014FF00C0200F0F9F944F2B033C4F2000344F2B032C4F200021278D2B202F02A
:40308000FD021A7080BD00BF80B483B000AF786039603B68DAB27B681A707B6803F101037B603B684FEA13233B603B68DAB27B681A707B6803F101037B603B684FEA1323A1
:4030C0003B603B68DAB27B681A7007F10C07BD4680BC7047224B234A1B6832F81010224A33F8103030B532F81040CD1AADB2C3EB040C85EA0C0C1CF4004F2DD065B31C1B85
:4031000024B222F81010194A002CB8BF644212F800C0E4B2B4EB5C0F1EDA154A115C8C4208DD144C0131002501EBDC0C255402F800C011E010D00F4C14F800C0BCF1090F77
:4031400004D80CF1010C04F800C005E04FF0000C013904F800C01154024A22F8103030BD4481FF1FE081FF1F0482FF1F1882FF1F2C82FF1FF081FF1F38B5284B05461B6848
:403180001C5CFFF7A7FF264A135D591E1155002B24D1244A24491368095D24481955244B005D1968085512681B68125DE15C5208914228BFE2541F4B1B681A5D184B1A55B5
:4031C000184A1D4B12681B68125D92081A55164B4FF0FF321A55154B01321A55174B124A595D174B48005B5DC0B2834204D9105D984206D9135504E012F804C0844588BF14
:4032000010550A4A01EB5101C9B29B08994228BF0B46115D994238BF135538BD3481FF1F2882FF1F3C81FF1FF881FF1F1482FF1F2881FF1F3881FF1F2C81FF1F2C82FF1FD3
:403240001882FF1F70B5002237E0C45C944204D1204C1C5DA14238BF21460133DCB26445F3D31D4B1B6899541C4B1E781C4B1D6800231DE0E85C904219D11A48154C185CFE
:4032800013F804C007E04FEA4C0C5FFA8CFC40004CF0010C80B26145F5D80E4C10F47F4F03F804C00F4C18BF4FF0FF3018550133D8B2B042DED30132D2B20B4B1B789342EA
:4032C00007D9064B93F800C0054B186800231946C4E770BDFC81FF1F3081FF1F5081FF1F3481FF1F1882FF1F5281FF1F2DE9F0419846194B04461B78154683422AD908467C
:40330000FEF7D2FB154B00261B68154A1E55154B12681B6867001B5DD55480250F4B20461B68E25C45EA0202E254FEF7A7FBFEF7B3FB0028FBD10C4B1B68DB5B434505D25F
:40334000064B1B68E25C22EA0502E25401366D08082EE3D1BDE8F0815181FF1F4081FF1F3081FF1F3481FF1F4481FF1F38B5154B4FF0FF321A54144BFF221B6804461D5C01
:403380004BF6FF73FFF7B2FF104B114A1B5D12885343B3FBF5F5ADB204E00A4B6D081A5D52081A55802DF8D80A4BEDB21D550A4BAD081D55094B4FF000021B6823F81420AA
:4033C00038BD00BFFC81FF1F4081FF1FF43600004E81FF1F1882FF1F2C82FF1F4881FF1F70B5194B00241D7808E02046294601224FF4C073FFF77AFF0134E4B2134B1B785A
:40340000A342F2D8124B1978124B1A6800231D4607E0D05C104CC008205C0133854238BF0546D8B28842F4D3002405E020462946FFF79CFF0134E4B2044B1B78A342F5D8B1
:40344000BDE87040FFF7FEBE4C81FF1F5181FF1F5081FF1F4081FF1FFC360000032A2DE9F0070BD83AB1002311F803C000F803C001339342F8D1BDE8F007704782180C46A7
:40348000034603E014F8011C03F8011C03F003061946A44601330134002EF3D11CF00304634608BFC1EB020C68D06542C4F1040A0CEB050733464FEACA0A5CF805604FEAA5
:4034C000C408551A08E057F8044F264604FA0AF449EA0404CC5004335C18032D26FA08F9A5F104050CEB0306EDDC002302E0F15CE154013319199142F9D3BCE753F8404CDE
:4035000041F8404C53F83C4C41F83C4C53F8384C41F8384C53F8344C41F8344C53F8304C41F8304C53F82C4C41F82C4C53F8284C41F8284C53F8244C41F8244C53F8204CAB
:4035400041F8204C53F81C4C41F81C4C53F8184C41F8184C53F8144C41F8144C53F8104C41F8104C53F80C4C41F80C4C53F8084C41F8084C53F8044C41F8044C1C460D464D
:4035800040334031BCF13F0FACF1400CB6DC21462B46541B0FE051F8105C43F8105C51F80C5C43F80C5C51F8085C43F8085C51F8045C43F8045C0F2C0D469C4601F11001C8
:4035C00003F11003A4F11004E5DCCCEB0201002303E0EC584CF8034004335E19032903EB0C04A1F10401F4DC7FE700BF08B500F017F8074800B10068064901B109680022B3
:40360000FCF7CCFE044B0BB1AFF30080FEE700BF000000000000000000000000FEE7000070B543F6700643F67005C0F20006C0F20005761BB61006D0002455F824300134FF
:403640009847A642F9D843F6700543F67806C0F20005C0F20006761B00F004F9B61006D0002455F8243001349847A642F9D870BD54580000530000005265642020000000AB
:40368000477265656E200000426C75652000000005500040065000400050004001500040025000400350004004500040000000000000000020400102040810000652004035
:4036C0000E520040165200401E520040265200402E520040365200407E52004001020000000000000200010005010100001900000800000002020202020202000101010241
:4037000002020303030404050505060630313233343536373839414243444546C0000000C8000000D0000000D8000000E0000000E0000000E0000000E0000000C881FF1FA0
:40374000C881FF1FC881FF1FC881FF1FC881FF1FC881FF1FC881FF1FC881FF1FC881FF1FC881FF1FC881FF1FC881FF1FC881FF1FC881FF1F080400482804004800000048FE
:40378000080000488800004808010048880100480802004888020048080300488803004868040048E804004868050048E805004868060048E806004868070048E8070048D1
:4037C00068080048E808004868090048E8090048680A0048E80A0048680B0048E80B0048680C0048E80C0048680D0048E80D0048680E0048E80E0048680F0048E80F004811
:4038000068100048E810004868110048E811004868120048E812004868130048E813004868140048E814004868150048781500480C5100400C5100400C5100400C51004066
:403840000C5100400C5100400C510040035B0040C35A0040835A0040204001020408101001100000F8B500BFF8BC08BC9E4670478103000041080000F8B500BFF8BC08BC89
:403880009E4670476D03000000000000A03800000080FF1F68010000D00000000000000000000000000000000000000000000000000000000000000000000000000000004E
:4038C00000000000000000000000000000000000000000000000000000000000000000000000000000000000000000000000000000000000000000000000000000000000C8
:403900000000000000000000000000000000000000000000000000000000000000000000000000000000000000000000000000000000000000000000000000000000000087
:403940000000000000000000000000000000000000000000000000000000000000000000000000000000000000000000000000000000000000000000000000000000000047
:403980000000000000000000000000000000000000000000000000000000000000000000000000007F000000C8C8C8C8C8C8C800030303006464640014141400000A0A008B
:4039C00000050500010000001881FF1F1C81FF1F1081FF1FDC360000E83600001481FF1F0881FF1F7C81FF1F8C81FF1F0300F9140707030000366E01C05D000018000000D0
:403A00000000E02E00000000000000000000000000000000000000000000000000000000000000000000000000000000000000000000000000000000000000000000000078
:403A40000000000000000000000000000000000000000000000000000000000000000000000000000000000000000000000000000000000000000000000000000000000046
:403A80000000000000000000000000000000000000000000000000000000000000000000000000000000000000000000000000000000000000000000000000000000000006
:403AC00000000000000000000000000000000000000000000000000000000000000000000000000000000000000000000000000000000000000000000000000000000000C6
:403B00000000000000000000000000000000000000000000000000000000000000000000000000000000000000000000000000000000000000000000000000000000000085
:020000040003F7
:0200000480007A
:400000000000000003000000040010800013602C0240100000000000FF02000DDF0020807E008100E90016000165801A00496006F780080000800000400F30800F70807091
:40004000000000A200000004060200000000000000FFFFFF020CF80000000000000002000505050510000810000048A100000000F000F000F000F0000000000000000000E8
:4000800000000000000000000000000010000200170008000D00120000000000000000002000000000002000000005001E000100000000000000000004000300200018004D
:4000C000000000000000000002030000000000A000FFFFFF030CF40000000000000000000400040400000000000048A100000000F000F000F000F0000000000000000000A6
:4001000000000000000000003300000000020000F9070638440CB110006000005156A0093101020031020200020231001602C80002000002330200000F080004E07F160044
:4001400000202200000000052401600005B0EDFC3EFFFFFF2200F008040000000900000004040404111100000000C00040011011C00100010000400100000000000000005C
:40018000000000000000000000000004000300000003000000000003000300000003000000000000000000000000000100030000000000080003000000040001000200080E
:4001C000000000000000001400000000000000000000000000000000000000000000022C000C0005001001100000000000000000000000000000000000000000000000008B
:4002000000000000000000000000000000000000000000000000000000000000000000000000000000000000000000000000000000000000000000000000000000000000BE
:40024000000000000000000000000000000000000000000000000000000000004000000000000004001000000000000000000000000000000000000000000000000000002A
:40028000000000000000000001C00000004000000C00000000050C3A240000C0010000C000000220000E00000080000000C02C000004103908132004010F1CC0023030309B
:4002C00002020000000044046305000000620000030000000000000000000000000000000404040010000000000CF00C000C000C404C404C9058000C00000000000000009D
:4003000000000000000000000000000000000000000000000000000000000000000000000000000000000000000000000000000000000000000000000000000000000000BD
:40034000000000000000000026000000005420000BFFFFFF0220000500100000000000000000040000000000404080008000800000000000000000000000000000000000A0
:400380000000000000000000000000000000000000030000000F00000000000F0000000000000000000000000005000000000000000A0000000000000000000C00000003FE
:4003C00000000000000000442106000000220266370000000000000000000000000000000004040000000000000CF00C000C000C404C404C9058000C00000000000000009D
:4004000000000000000000000000000000000000000000000000000000000000000000001F000000000F00000000000000000000FFFF00FF00000000000000000000000091
:40044000FF0000FF000000000000000000000000FF0000FF000000000000000000000000000000000000000000000000000000000000000000000000000000000000000080
:40048000000000000000000000000000000000000000000000000000000000000000000000000000000000000000000000000000000000000000000000000000000000003C
:4004C00000000000000000000000000000000400000000000000000000000000000000000000000000000000000004000000000000000000000000000000000000000000F4
:4005000000000000000000000000000000000000000000000000000000000000100000000000000000000000000000000000000000000000000000000000000000000000AB
:400540000100000000000000000000000000000000000800000000000000000000000000000000000000000000000000000000000000000200000000100000000000000060
:4005800000000002000000000000000000000000000000000000000000000040000000000000000000000000000000000000000000000000000000000000000000000000F9
:4005C0000000000000000000000004000000000000000000010000000000000000000000000000000000000000000000000000000000000000000000100000000000008066
:4006000000000002000000000000000000000000040000020200000000000000000000000000000000000000000000000000000000000000000000000000000000000000B0
:40064000000000000000000000000000000000000000000000000000000000000000000000000000000000000000000000000000000000000000000000000000000000007A
:40068000000000000000000000000000000000000000000000000000000000000000000000000000000000000000000000000000000000000000000000000000000000003A
:4006C00000000000000000000000000000000000000000000000000000000000020200000000000000000040000000000000000000000000040000001000000000000000A2
:4007000000000000000200000000000000000000000010000000000000040000000000000000000000000000000000000000000000000000000000000000000000000000A3
:40074000000000000000010008000000000000000000000000000100000000000000000000000000000000000000000000000000000000000000000000000000000000006F
:400780000002100000000000000000000000000000000000000000000000000000000000000000000000000000000000000000000000000000000000000000000000000027
:4007C00000000000000000000000000000000000000000000000000000000000000000000000000000000000000000000000000000000000000000001008000000000000E1
:4008000000000000000000000000000000000000000000000000001000000000000000000000000000000000000000000000000000000000000000000000000000000000A8
:400840000000000000000000000000000000000000000000000000000000000000000000000000000000000000000000000000000000000000000000000000000000000078
:400880000000000000000000000400000000000000000000000000000000000000000000100000200000000000000000000000000000000000000000000000000000000004
:4008C00000000000000000000000000000000000000000000000000000000000000000000000000000000000000000000000000000000000000000000000000000000000F8
:4009000000000000000000000000000000000000000000000000000000000000000000000000000000000000000000000000000002000000000008000000000000000000AD
:400940000000000000000000000000000000000000000000000000000000000000000000000000000000000000000000000000000000000000000000000000000000000077
:400980000000000000000000000000000200080000000000080100080000000000000100000000000000802000000000008000200000000000050804000000000800014180
:4009C0000000000000000000000000000000000000000000000000000000000000000000000000000000000000000200000000000000C0000400000008000000020500041E
:400A00000000002000000100008043100000004905000002200000002000000000001C10000000000000000000000000000000000000A00080003000300020000000000066
:400A40000000000000000000010030002000000080004000100000000000000000000000000000000000000000000000000000000000000000000000000000000000000055
:400A80000000000000000000000000000000000000000000000000000800000008000000000000000000000000000000000000000000000000000000000000000000000026
:400AC0000000000000000000000030002000000001000200100000000000000000000000000000000000000000000000800208000004110200002088000000001000050035
:400B00000000000000A010030000000000006A4000000000410008040000000002082040000000000100004410000024000400000002102041080800000000200000000081
:400B4000000000000000000004000008000000000000000000000000000000000000000040000001100000040000000000000000100000002008000008002060000501004E
:400B800003000024200000000008010000200008000000000010000000100003000000480000000000000000D0007000E00000000000F000F000D00044003400000000000A
:400BC00000000000000000000000000000000000000000000000000000000000000000000000000000000000000000000000000000000000000000000000000000000000F5
:400C000000000000000000000000000000000000000000000000000000000000000000000000000000000000000000000000000000000000000000000000000000000000B4
:400C4000000000000000000000000000000000000200000000000000000000000000000000000000000000001880000000000850002001C0008808801000000220204000FF
:400C800000822075000A4A00000000000040222C00000000A0004048201020000004020010040820000120041000002008042000000000000240002000000002000000009C
:400CC00000000000101000000000000000000000040000120000000000000000020040001000000400000100180200000100110400020000000000000800000000400000ED
:400D0000020410000010000880840000004003000284000080000002000000000000000000000000000000007700F3007C0000000000F000C000E00026002000000000007A
:400D400000000000000010000000000000002000080000000000010000000000000000000000000000000000002000000020000000000000000000000000000000000000FA
:400D80000000000000000000000000000000000000000000000000000000000000000000000000000000000000000000000000000000000000000000000000000000000033
:400DC0000000000000000000000000000200210000000000000000000000000000000000000000000000000000000000000000100000000000000100080000200040000057
:400E000000001000001000080004000200400200001000101000004004000000000000000000000000000000000000000000000000000000000000000000000000000000CE
:400E4000000000000000000000000000000000000000010000000000000000000000000000000000000000000000000002000000000000000000000000000000000000006F
:400E8000000000000200000000000000000000000200000000000000000000000000000000000000000000000000000000000000000000000000000000000000000000002E
:400EC00000000000000000000000000000000200000000000100000000000000000000000000000000000000000000004010004040400000004004200000000080001600E5
:400F000000000000408000D2010020500800148004400840001150100004010000421008019400006004040000000000409000000000000001020400000000000124044871
:400F4000000000002A000080082002000000100A048156400000000000440A000000000000400000220080080200240100008400840000840100000000000000000000502C
:400F800000000000000000000000000001000040000000000000004001000004000000000000000000000000D000E000F00000000000FF00F3007F00B00030000000F000CA
:400FC0001100000000000800400000000000000000000000020000000000000000000000000000000000000000000000000000000000000000000000000000000000000096
:4010000000000000000000000000000000000000000000000000000000000000000000000000000000000000000000000000000000000000000000000000000000000000B0
:401040000000000000000000400000000000000000000000000000000000000000000000000000000000000000000000000000000000000000000000000000000000000030
:401080000000000000000000000000000000000000000000000000000000000000000000000000000000000000000000000000000000000000000000000000000000000030
:4010C0000000000000000000000000000080001800000000000000000000000000000000000000000000000000800040000000000000000000000000000000000000000098
:4011000000000000000000000000000000000000000000000000000000000000000000000000000000000000000000000000000000000000000000000000000000000000AF
:4011400070000000000000000000000000000000000000000000000000000000000000000000000000000000000000000000000000002000000000000000000000000000DF
:40118000000000000000000000000000000000000000000000000000000000000000000000000000000000000000000000000000000000000000000000000000000000002F
:4011C00000000002000000000000000000000800000000000000000000000000000000000000000000000000000000000000000008000002000008000000000000002000B3
:4012000000000000000000000800000000000000000000802000000000000000080000000000000000000000000010000000000000000000000000000000000000004000AE
:40124000800000000000000000000000000000008000400000000000000000000000000000000000000000000000000000000000000000000000000000000000000000002E
:40128000000000000000000000000000000000000000000000000000000000000000000000000000000000000000000000000000000000000000000000000000000000002E
:4012C0000000000000000000000000000000000000000000000000000800008000000000000000000000000000000000000000000000000000000000000000000000200046
:40130000000000000000000008000000200000000000000008000000000000000000000000000000000000000000000000000000000000000000000000000000000000007D
:40134000000000000000000000000000000000004000000000000000000000000000000000000000000000000000000000000000000000000000000000000000000000002D
:40138000000000000000000000000000000000000000000000000000200000000000000000000000000000000000000000000000000000000000000000000000000000000D
:4013C00000000000000000000000000000000000000000000000000000000000000000000000000000000000000000000000000008000000000000000000000000002000C5
:40140000000000000000000000000000000000000000000000000000000000000000000000000000000000000000000000000000000000001000000000000000000000009C
:40144000000000000000000000000000000000000000000000000000000000000000000000000000000000000000000000000000000000000000000000000000000020004C
:40148000000000000000000000000000000000000000000000000000000000000000000000000000000000000000000000000000000000000000000000000000000000002C
:4014C00000000000000000000000000000000000000000000000000000000000000000000000000000000000000000000000000000000000000010000000000000000000DC
:4015000000000000000000000000000000000000000000000000000000000000000000000000000000000000000000000000000000000000000000000000000000000000AB
:401540000000000000000000000000000000000000000000000000000000000000000000000000000000000003001000000000000000000003000000030010000000000042
:40158000000000000300030000007F000000000010C0C000C0000000000000000000200000FFFF00800000000000000000007F008080000010000000808000000000000029
:4015C00000000000000000000000000000000000000000000000000000000000000000000000000000000000000000000000000000000000000000000000000000000000EB
:4016000000000000000000000000000000000000000000000000000000000000000000000000000000000000000000000000000000000000000000000000000000000000AA
:40164000000000000000000000000000000000000000000000000000000000000000000000000000000000000000000000000000000000000000000000000000000000006A
:40168000000000000000000000000000000000000000000000000000000000000000000000000000000000000000000000000000000000000000000000000000000000002A
:0200000490006A
:0400000000000005F7
:0200000490105A
:0400000000000000FC
:0200000490501A
:0C00000000010E13C06901010E2C285DE8
:0200000490303A
:0200000067F4A3
:0200000490402A
:4000000000000000000000000000000000000000000000000000000000000000000000000000000000000000000000000000000000000000000000000000000000000000C0
:400040000000000000000000000000000000000000000000000000000000000000000000000000000000000000000000000000000000000000000000000000000000000080
:400080000000000000000000000000000000000000000000000000000000000000000000000000000000000000000000000000000000000000000000000000000000000040
:4000C0000000000000000000000000000000000000000000000000000000000000000000000000000000000000000000000000000000000000000000000000000000000000
:00000001FF
